{"contracts/SoulRegistry.sol":{"SoulRegistry":{"abi":[{"anonymous":false,"inputs":[{"indexed":true,"internalType":"address","name":"agent","type":"address"},{"indexed":true,"internalType":"address","name":"reader","type":"address"},{"indexed":false,"internalType":"uint8","name":"docType","type":"uint8"}],"name":"AccessGranted","type":"event"},{"anonymous":false,"inputs":[{"indexed":true,"internalType":"address","name":"agent","type":"address"},{"indexed":true,"internalType":"address","name":"reader","type":"address"},{"indexed":false,"internalType":"uint8","name":"docType","type":"uint8"}],"name":"AccessRevoked","type":"event"},{"anonymous":false,"inputs":[{"indexed":true,"internalType":"address","name":"agent","type":"address"},{"indexed":true,"internalType":"uint8","name":"docType","type":"uint8"},{"indexed":false,"internalType":"uint32","name":"version","type":"uint32"},{"indexed":false,"internalType":"bytes32","name":"contentHash","type":"bytes32"},{"indexed":false,"internalType":"string","name":"storageCid","type":"string"}],"name":"DocumentWritten","type":"event"},{"anonymous":false,"inputs":[{"indexed":true,"internalType":"address","name":"agent","type":"address"},{"indexed":false,"internalType":"uint64","name":"timestamp","type":"uint64"}],"name":"SoulRegistered","type":"event"},{"inputs":[{"internalType":"address","name":"agent","type":"address"},{"internalType":"uint8","name":"docType","type":"uint8"},{"internalType":"uint32","name":"version","type":"uint32"}],"name":"documentAt","outputs":[{"components":[{"internalType":"bytes32","name":"contentHash","type":"bytes32"},{"internalType":"bytes32","name":"encryptedHash","type":"bytes32"},{"internalType":"string","name":"storageCid","type":"string"},{"internalType":"uint8","name":"docType","type":"uint8"},{"internalType":"uint64","name":"timestamp","type":"uint64"},{"internalType":"uint32","name":"version","type":"uint32"},{"internalType":"bytes32","name":"prevHash","type":"bytes32"},{"internalType":"bytes","name":"signature","type":"bytes"}],"internalType":"struct SoulRegistry.DocumentEntry","name":"","type":"tuple"}],"stateMutability":"view","type":"function"},{"inputs":[{"internalType":"address","name":"agent","type":"address"},{"internalType":"uint8","name":"docType","type":"uint8"}],"name":"documentCount","outputs":[{"internalType":"uint32","name":"","type":"uint32"}],"stateMutability":"view","type":"function"},{"inputs":[{"internalType":"address","name":"reader","type":"address"},{"internalType":"uint8","name":"docType","type":"uint8"}],"name":"grantAccess","outputs":[],"stateMutability":"nonpayable","type":"function"},{"inputs":[{"internalType":"address","name":"agent","type":"address"},{"internalType":"address","name":"reader","type":"address"},{"internalType":"uint8","name":"docType","type":"uint8"}],"name":"hasAccess","outputs":[{"internalType":"bool","name":"","type":"bool"}],"stateMutability":"view","type":"function"},{"inputs":[{"internalType":"address","name":"agent","type":"address"},{"internalType":"uint8","name":"docType","type":"uint8"}],"name":"latestDocument","outputs":[{"components":[{"internalType":"bytes32","name":"contentHash","type":"bytes32"},{"internalType":"bytes32","name":"encryptedHash","type":"bytes32"},{"internalType":"string","name":"storageCid","type":"string"},{"internalType":"uint8","name":"docType","type":"uint8"},{"internalType":"uint64","name":"timestamp","type":"uint64"},{"internalType":"uint32","name":"version","type":"uint32"},{"internalType":"bytes32","name":"prevHash","type":"bytes32"},{"internalType":"bytes","name":"signature","type":"bytes"}],"internalType":"struct SoulRegistry.DocumentEntry","name":"","type":"tuple"}],"stateMutability":"view","type":"function"},{"inputs":[],"name":"registerSoul","outputs":[],"stateMutability":"nonpayable","type":"function"},{"inputs":[{"internalType":"address","name":"","type":"address"}],"name":"registered","outputs":[{"internalType":"bool","name":"","type":"bool"}],"stateMutability":"view","type":"function"},{"inputs":[{"internalType":"address","name":"reader","type":"address"},{"internalType":"uint8","name":"docType","type":"uint8"}],"name":"revokeAccess","outputs":[],"stateMutability":"nonpayable","type":"function"},{"inputs":[{"internalType":"address","name":"agent","type":"address"},{"internalType":"uint8","name":"docType","type":"uint8"},{"internalType":"uint32","name":"version","type":"uint32"},{"internalType":"bytes32","name":"expectedHash","type":"bytes32"}],"name":"verifyDocument","outputs":[{"internalType":"bool","name":"","type":"bool"}],"stateMutability":"view","type":"function"},{"inputs":[{"internalType":"uint8","name":"docType","type":"uint8"},{"internalType":"bytes32","name":"contentHash","type":"bytes32"},{"internalType":"bytes32","name":"encryptedHash","type":"bytes32"},{"internalType":"string","name":"storageCid","type":"string"},{"internalType":"bytes","name":"signature","type":"bytes"}],"name":"writeDocument","outputs":[],"stateMutability":"nonpayable","type":"function"}],"evm":{"bytecode":{"linkReferences":{},"object":"608060405234801561001057600080fd5b5061127d806100206000396000f3fe608060405234801561001057600080fd5b506004361061009e5760003560e01c806387ed1bd01161006657806387ed1bd01461013b578063ab084fee1461014e578063afe8e79414610161578063b2dd5c0714610174578063ca9ace4f1461019757600080fd5b806317888263146100a35780632bf28a29146100cb57806367631619146100eb5780636f925535146101135780637f761cfe14610128575b600080fd5b6100b66100b1366004610d28565b61019f565b60405190151581526020015b60405180910390f35b6100de6100d9366004610d7f565b6101fa565b6040516100c29190610dff565b6100fe6100f9366004610e9d565b610505565b60405163ffffffff90911681526020016100c2565b610126610121366004610e9d565b610531565b005b610126610136366004610f19565b6105d2565b610126610149366004610e9d565b610842565b6100de61015c366004610e9d565b6108de565b6100b661016f366004610fad565b610bb6565b6100b6610182366004610ff8565b60016020526000908152604090205460ff1681565b610126610c4b565b6000826001600160a01b0316846001600160a01b031614806101f257506001600160a01b038085166000908152600260209081526040808320938716835292815282822060ff8087168452915291902054165b949350505050565b604080516101008101825260008082526020820181905260609282018390528282018190526080820181905260a0820181905260c082015260e0810191909152336001600160a01b038516148061027e57506001600160a01b0384166000908152600260209081526040808320338452825280832060ff8088168552925290912054165b6102bf5760405162461bcd60e51b815260206004820152600d60248201526c1058d8d95cdcc819195b9a5959609a1b60448201526064015b60405180910390fd5b6001600160a01b03841660009081526020818152604080832060ff8716845290915290205463ffffffff83161061032c5760405162461bcd60e51b815260206004820152601160248201527015995c9cda5bdb881b9bdd08199bdd5b99607a1b60448201526064016102b6565b6001600160a01b03841660009081526020818152604080832060ff871684529091529020805463ffffffff84169081106103685761036861101a565b90600052602060002090600602016040518061010001604052908160008201548152602001600182015481526020016002820180546103a690611030565b80601f01602080910402602001604051908101604052809291908181526020018280546103d290611030565b801561041f5780601f106103f45761010080835404028352916020019161041f565b820191906000526020600020905b81548152906001019060200180831161040257829003601f168201915b5050509183525050600382015460ff81166020830152610100810467ffffffffffffffff166040830152600160481b900463ffffffff1660608201526004820154608082015260058201805460a09092019161047a90611030565b80601f01602080910402602001604051908101604052809291908181526020018280546104a690611030565b80156104f35780601f106104c8576101008083540402835291602001916104f3565b820191906000526020600020905b8154815290600101906020018083116104d657829003601f168201915b50505050508152505090509392505050565b6001600160a01b03821660009081526020818152604080832060ff851684529091529020545b92915050565b3360009081526001602052604090205460ff166105605760405162461bcd60e51b81526004016102b69061106a565b3360008181526002602090815260408083206001600160a01b03871680855290835281842060ff871680865290845293829020805460ff19169055905192835292917f349fdac62e52dc85b55b8f76b0f91f1fef9ca6d4b07755ac804d7c97da1b198991015b60405180910390a35050565b3360009081526001602052604090205460ff166106015760405162461bcd60e51b81526004016102b69061106a565b3360009081526020818152604080832060ff8b16845290915281208054909163ffffffff8216610632576000610667565b8261063e6001846110a8565b63ffffffff16815481106106545761065461101a565b9060005260206000209060060201600001545b9050826040518061010001604052808b81526020018a815260200189898080601f01602080910402602001604051908101604052809392919081815260200183838082843760009201919091525050509082525060ff8d1660208083019190915267ffffffffffffffff421660408084019190915263ffffffff87166060840152608083018690528051601f8a0183900483028101830190915288815260a09092019190899089908190840183828082843760009201829052509390945250508354600181810186559482526020918290208451600690920201908155908301519381019390935550604081015190919060028201906107679082611131565b506060820151600382018054608085015160a086015163ffffffff16600160481b026cffffffff0000000000000000001967ffffffffffffffff9092166101000268ffffffffffffffffff1990931660ff90951694909417919091171691909117905560c0820151600482015560e082015160058201906107e89082611131565b5050508960ff16336001600160a01b03167f9e0e1784e8b758f6e1d0a719c9d9e54fbb8376bc7a50b83516bd446a8e023d75848c8b8b60405161082e94939291906111f1565b60405180910390a350505050505050505050565b3360009081526001602052604090205460ff166108715760405162461bcd60e51b81526004016102b69061106a565b3360008181526002602090815260408083206001600160a01b03871680855290835281842060ff871680865290845293829020805460ff19166001179055905192835292917fc2b5e6f861f43611062b511ecb54443548e07a6d51239b90892bc2a90b83339e91016105c6565b60408051610100810182526000808252602080830182905260608385018190528084018390526080840183905260a0840183905260c0840183905260e08401526001600160a01b038616825281815283822060ff8616835290529190912080546109795760405162461bcd60e51b815260206004820152600c60248201526b4e6f20646f63756d656e747360a01b60448201526064016102b6565b336001600160a01b03851614806109bd57506001600160a01b0384166000908152600260209081526040808320338452825280832060ff8088168552925290912054165b6109f95760405162461bcd60e51b815260206004820152600d60248201526c1058d8d95cdcc819195b9a5959609a1b60448201526064016102b6565b80548190610a0990600190611234565b81548110610a1957610a1961101a565b9060005260206000209060060201604051806101000160405290816000820154815260200160018201548152602001600282018054610a5790611030565b80601f0160208091040260200160405190810160405280929190818152602001828054610a8390611030565b8015610ad05780601f10610aa557610100808354040283529160200191610ad0565b820191906000526020600020905b815481529060010190602001808311610ab357829003601f168201915b5050509183525050600382015460ff81166020830152610100810467ffffffffffffffff166040830152600160481b900463ffffffff1660608201526004820154608082015260058201805460a090920191610b2b90611030565b80601f0160208091040260200160405190810160405280929190818152602001828054610b5790611030565b8015610ba45780601f10610b7957610100808354040283529160200191610ba4565b820191906000526020600020905b815481529060010190602001808311610b8757829003601f168201915b50505050508152505091505092915050565b6001600160a01b03841660009081526020818152604080832060ff8716845290915281205463ffffffff841610610bef575060006101f2565b6001600160a01b03851660009081526020818152604080832060ff881684529091529020805483919063ffffffff8616908110610c2e57610c2e61101a565b906000526020600020906006020160000154149050949350505050565b3360009081526001602052604090205460ff1615610ca05760405162461bcd60e51b8152602060048201526012602482015271105b1c9958591e481c9959da5cdd195c995960721b60448201526064016102b6565b33600081815260016020818152604092839020805460ff1916909217909155905167ffffffffffffffff421681527fe60a3e37a71d811f21074034fd64f05048318f6349b1503eff836e66e4427553910160405180910390a2565b80356001600160a01b0381168114610d1257600080fd5b919050565b803560ff81168114610d1257600080fd5b600080600060608486031215610d3d57600080fd5b610d4684610cfb565b9250610d5460208501610cfb565b9150610d6260408501610d17565b90509250925092565b803563ffffffff81168114610d1257600080fd5b600080600060608486031215610d9457600080fd5b610d9d84610cfb565b9250610dab60208501610d17565b9150610d6260408501610d6b565b6000815180845260005b81811015610ddf57602081850181015186830182015201610dc3565b506000602082860101526020601f19601f83011685010191505092915050565b60208152815160208201526020820151604082015260006040830151610100806060850152610e32610120850183610db9565b915060ff60608601511660808501526080850151610e5c60a086018267ffffffffffffffff169052565b5060a085015163ffffffff811660c08601525060c085015160e085015260e0850151601f198584030182860152610e938382610db9565b9695505050505050565b60008060408385031215610eb057600080fd5b610eb983610cfb565b9150610ec760208401610d17565b90509250929050565b60008083601f840112610ee257600080fd5b50813567ffffffffffffffff811115610efa57600080fd5b602083019150836020828501011115610f1257600080fd5b9250929050565b600080600080600080600060a0888a031215610f3457600080fd5b610f3d88610d17565b96506020880135955060408801359450606088013567ffffffffffffffff80821115610f6857600080fd5b610f748b838c01610ed0565b909650945060808a0135915080821115610f8d57600080fd5b50610f9a8a828b01610ed0565b989b979a50959850939692959293505050565b60008060008060808587031215610fc357600080fd5b610fcc85610cfb565b9350610fda60208601610d17565b9250610fe860408601610d6b565b9396929550929360600135925050565b60006020828403121561100a57600080fd5b61101382610cfb565b9392505050565b634e487b7160e01b600052603260045260246000fd5b600181811c9082168061104457607f821691505b60208210810361106457634e487b7160e01b600052602260045260246000fd5b50919050565b6020808252600e908201526d139bdd081c9959da5cdd195c995960921b604082015260600190565b634e487b7160e01b600052601160045260246000fd5b63ffffffff8281168282160390808211156110c5576110c5611092565b5092915050565b634e487b7160e01b600052604160045260246000fd5b601f82111561112c57600081815260208120601f850160051c810160208610156111095750805b601f850160051c820191505b8181101561112857828155600101611115565b5050505b505050565b815167ffffffffffffffff81111561114b5761114b6110cc565b61115f816111598454611030565b846110e2565b602080601f831160018114611194576000841561117c5750858301515b600019600386901b1c1916600185901b178555611128565b600085815260208120601f198616915b828110156111c3578886015182559484019460019091019084016111a4565b50858210156111e15787850151600019600388901b60f8161c191681555b5050505050600190811b01905550565b63ffffffff8516815283602082015260606040820152816060820152818360808301376000818301608090810191909152601f909201601f191601019392505050565b8181038181111561052b5761052b61109256fea2646970667358221220903f252e5d2e230d28d3ef904652cead5cc4620c853a271e27166eb6f35123de64736f6c63430008140033","opcodes":"PUSH1 0x80 PUSH1 0x40 MSTORE CALLVALUE DUP1 ISZERO PUSH2 0x10 JUMPI PUSH1 0x0 DUP1 REVERT JUMPDEST POP PUSH2 0x127D DUP1 PUSH2 0x20 PUSH1 0x0 CODECOPY PUSH1 0x0 RETURN INVALID PUSH1 0x80 PUSH1 0x40 MSTORE CALLVALUE DUP1 ISZERO PUSH2 0x10 JUMPI PUSH1 0x0 DUP1 REVERT JUMPDEST POP PUSH1 0x4 CALLDATASIZE LT PUSH2 0x9E JUMPI PUSH1 0x0 CALLDATALOAD PUSH1 0xE0 SHR DUP1 PUSH4 0x87ED1BD0 GT PUSH2 0x66 JUMPI DUP1 PUSH4 0x87ED1BD0 EQ PUSH2 0x13B JUMPI DUP1 PUSH4 0xAB084FEE EQ PUSH2 0x14E JUMPI DUP1 PUSH4 0xAFE8E794 EQ PUSH2 0x161 JUMPI DUP1 PUSH4 0xB2DD5C07 EQ PUSH2 0x174 JUMPI DUP1 PUSH4 0xCA9ACE4F EQ PUSH2 0x197 JUMPI PUSH1 0x0 DUP1 REVERT JUMPDEST DUP1 PUSH4 0x17888263 EQ PUSH2 0xA3 JUMPI DUP1 PUSH4 0x2BF28A29 EQ PUSH2 0xCB JUMPI DUP1 PUSH4 0x67631619 EQ PUSH2 0xEB JUMPI DUP1 PUSH4 0x6F925535 EQ PUSH2 0x113 JUMPI DUP1 PUSH4 0x7F761CFE EQ PUSH2 0x128 JUMPI JUMPDEST PUSH1 0x0 DUP1 REVERT JUMPDEST PUSH2 0xB6 PUSH2 0xB1 CALLDATASIZE PUSH1 0x4 PUSH2 0xD28 JUMP JUMPDEST PUSH2 0x19F JUMP JUMPDEST PUSH1 0x40 MLOAD SWAP1 ISZERO ISZERO DUP2 MSTORE PUSH1 0x20 ADD JUMPDEST PUSH1 0x40 MLOAD DUP1 SWAP2 SUB SWAP1 RETURN JUMPDEST PUSH2 0xDE PUSH2 0xD9 CALLDATASIZE PUSH1 0x4 PUSH2 0xD7F JUMP JUMPDEST PUSH2 0x1FA JUMP JUMPDEST PUSH1 0x40 MLOAD PUSH2 0xC2 SWAP2 SWAP1 PUSH2 0xDFF JUMP JUMPDEST PUSH2 0xFE PUSH2 0xF9 CALLDATASIZE PUSH1 0x4 PUSH2 0xE9D JUMP JUMPDEST PUSH2 0x505 JUMP JUMPDEST PUSH1 0x40 MLOAD PUSH4 0xFFFFFFFF SWAP1 SWAP2 AND DUP2 MSTORE PUSH1 0x20 ADD PUSH2 0xC2 JUMP JUMPDEST PUSH2 0x126 PUSH2 0x121 CALLDATASIZE PUSH1 0x4 PUSH2 0xE9D JUMP JUMPDEST PUSH2 0x531 JUMP JUMPDEST STOP JUMPDEST PUSH2 0x126 PUSH2 0x136 CALLDATASIZE PUSH1 0x4 PUSH2 0xF19 JUMP JUMPDEST PUSH2 0x5D2 JUMP JUMPDEST PUSH2 0x126 PUSH2 0x149 CALLDATASIZE PUSH1 0x4 PUSH2 0xE9D JUMP JUMPDEST PUSH2 0x842 JUMP JUMPDEST PUSH2 0xDE PUSH2 0x15C CALLDATASIZE PUSH1 0x4 PUSH2 0xE9D JUMP JUMPDEST PUSH2 0x8DE JUMP JUMPDEST PUSH2 0xB6 PUSH2 0x16F CALLDATASIZE PUSH1 0x4 PUSH2 0xFAD JUMP JUMPDEST PUSH2 0xBB6 JUMP JUMPDEST PUSH2 0xB6 PUSH2 0x182 CALLDATASIZE PUSH1 0x4 PUSH2 0xFF8 JUMP JUMPDEST PUSH1 0x1 PUSH1 0x20 MSTORE PUSH1 0x0 SWAP1 DUP2 MSTORE PUSH1 0x40 SWAP1 KECCAK256 SLOAD PUSH1 0xFF AND DUP2 JUMP JUMPDEST PUSH2 0x126 PUSH2 0xC4B JUMP JUMPDEST PUSH1 0x0 DUP3 PUSH1 0x1 PUSH1 0x1 PUSH1 0xA0 SHL SUB AND DUP5 PUSH1 0x1 PUSH1 0x1 PUSH1 0xA0 SHL SUB AND EQ DUP1 PUSH2 0x1F2 JUMPI POP PUSH1 0x1 PUSH1 0x1 PUSH1 0xA0 SHL SUB DUP1 DUP6 AND PUSH1 0x0 SWAP1 DUP2 MSTORE PUSH1 0x2 PUSH1 0x20 SWAP1 DUP2 MSTORE PUSH1 0x40 DUP1 DUP4 KECCAK256 SWAP4 DUP8 AND DUP4 MSTORE SWAP3 DUP2 MSTORE DUP3 DUP3 KECCAK256 PUSH1 0xFF DUP1 DUP8 AND DUP5 MSTORE SWAP2 MSTORE SWAP2 SWAP1 KECCAK256 SLOAD AND JUMPDEST SWAP5 SWAP4 POP POP POP POP JUMP JUMPDEST PUSH1 0x40 DUP1 MLOAD PUSH2 0x100 DUP2 ADD DUP3 MSTORE PUSH1 0x0 DUP1 DUP3 MSTORE PUSH1 0x20 DUP3 ADD DUP2 SWAP1 MSTORE PUSH1 0x60 SWAP3 DUP3 ADD DUP4 SWAP1 MSTORE DUP3 DUP3 ADD DUP2 SWAP1 MSTORE PUSH1 0x80 DUP3 ADD DUP2 SWAP1 MSTORE PUSH1 0xA0 DUP3 ADD DUP2 SWAP1 MSTORE PUSH1 0xC0 DUP3 ADD MSTORE PUSH1 0xE0 DUP2 ADD SWAP2 SWAP1 SWAP2 MSTORE CALLER PUSH1 0x1 PUSH1 0x1 PUSH1 0xA0 SHL SUB DUP6 AND EQ DUP1 PUSH2 0x27E JUMPI POP PUSH1 0x1 PUSH1 0x1 PUSH1 0xA0 SHL SUB DUP5 AND PUSH1 0x0 SWAP1 DUP2 MSTORE PUSH1 0x2 PUSH1 0x20 SWAP1 DUP2 MSTORE PUSH1 0x40 DUP1 DUP4 KECCAK256 CALLER DUP5 MSTORE DUP3 MSTORE DUP1 DUP4 KECCAK256 PUSH1 0xFF DUP1 DUP9 AND DUP6 MSTORE SWAP3 MSTORE SWAP1 SWAP2 KECCAK256 SLOAD AND JUMPDEST PUSH2 0x2BF JUMPI PUSH1 0x40 MLOAD PUSH3 0x461BCD PUSH1 0xE5 SHL DUP2 MSTORE PUSH1 0x20 PUSH1 0x4 DUP3 ADD MSTORE PUSH1 0xD PUSH1 0x24 DUP3 ADD MSTORE PUSH13 0x1058D8D95CDCC819195B9A5959 PUSH1 0x9A SHL PUSH1 0x44 DUP3 ADD MSTORE PUSH1 0x64 ADD JUMPDEST PUSH1 0x40 MLOAD DUP1 SWAP2 SUB SWAP1 REVERT JUMPDEST PUSH1 0x1 PUSH1 0x1 PUSH1 0xA0 SHL SUB DUP5 AND PUSH1 0x0 SWAP1 DUP2 MSTORE PUSH1 0x20 DUP2 DUP2 MSTORE PUSH1 0x40 DUP1 DUP4 KECCAK256 PUSH1 0xFF DUP8 AND DUP5 MSTORE SWAP1 SWAP2 MSTORE SWAP1 KECCAK256 SLOAD PUSH4 0xFFFFFFFF DUP4 AND LT PUSH2 0x32C JUMPI PUSH1 0x40 MLOAD PUSH3 0x461BCD PUSH1 0xE5 SHL DUP2 MSTORE PUSH1 0x20 PUSH1 0x4 DUP3 ADD MSTORE PUSH1 0x11 PUSH1 0x24 DUP3 ADD MSTORE PUSH17 0x15995C9CDA5BDB881B9BDD08199BDD5B99 PUSH1 0x7A SHL PUSH1 0x44 DUP3 ADD MSTORE PUSH1 0x64 ADD PUSH2 0x2B6 JUMP JUMPDEST PUSH1 0x1 PUSH1 0x1 PUSH1 0xA0 SHL SUB DUP5 AND PUSH1 0x0 SWAP1 DUP2 MSTORE PUSH1 0x20 DUP2 DUP2 MSTORE PUSH1 0x40 DUP1 DUP4 KECCAK256 PUSH1 0xFF DUP8 AND DUP5 MSTORE SWAP1 SWAP2 MSTORE SWAP1 KECCAK256 DUP1 SLOAD PUSH4 0xFFFFFFFF DUP5 AND SWAP1 DUP2 LT PUSH2 0x368 JUMPI PUSH2 0x368 PUSH2 0x101A JUMP JUMPDEST SWAP1 PUSH1 0x0 MSTORE PUSH1 0x20 PUSH1 0x0 KECCAK256 SWAP1 PUSH1 0x6 MUL ADD PUSH1 0x40 MLOAD DUP1 PUSH2 0x100 ADD PUSH1 0x40 MSTORE SWAP1 DUP2 PUSH1 0x0 DUP3 ADD SLOAD DUP2 MSTORE PUSH1 0x20 ADD PUSH1 0x1 DUP3 ADD SLOAD DUP2 MSTORE PUSH1 0x20 ADD PUSH1 0x2 DUP3 ADD DUP1 SLOAD PUSH2 0x3A6 SWAP1 PUSH2 0x1030 JUMP JUMPDEST DUP1 PUSH1 0x1F ADD PUSH1 0x20 DUP1 SWAP2 DIV MUL PUSH1 0x20 ADD PUSH1 0x40 MLOAD SWAP1 DUP2 ADD PUSH1 0x40 MSTORE DUP1 SWAP3 SWAP2 SWAP1 DUP2 DUP2 MSTORE PUSH1 0x20 ADD DUP3 DUP1 SLOAD PUSH2 0x3D2 SWAP1 PUSH2 0x1030 JUMP JUMPDEST DUP1 ISZERO PUSH2 0x41F JUMPI DUP1 PUSH1 0x1F LT PUSH2 0x3F4 JUMPI PUSH2 0x100 DUP1 DUP4 SLOAD DIV MUL DUP4 MSTORE SWAP2 PUSH1 0x20 ADD SWAP2 PUSH2 0x41F JUMP JUMPDEST DUP3 ADD SWAP2 SWAP1 PUSH1 0x0 MSTORE PUSH1 0x20 PUSH1 0x0 KECCAK256 SWAP1 JUMPDEST DUP2 SLOAD DUP2 MSTORE SWAP1 PUSH1 0x1 ADD SWAP1 PUSH1 0x20 ADD DUP1 DUP4 GT PUSH2 0x402 JUMPI DUP3 SWAP1 SUB PUSH1 0x1F AND DUP3 ADD SWAP2 JUMPDEST POP POP POP SWAP2 DUP4 MSTORE POP POP PUSH1 0x3 DUP3 ADD SLOAD PUSH1 0xFF DUP2 AND PUSH1 0x20 DUP4 ADD MSTORE PUSH2 0x100 DUP2 DIV PUSH8 0xFFFFFFFFFFFFFFFF AND PUSH1 0x40 DUP4 ADD MSTORE PUSH1 0x1 PUSH1 0x48 SHL SWAP1 DIV PUSH4 0xFFFFFFFF AND PUSH1 0x60 DUP3 ADD MSTORE PUSH1 0x4 DUP3 ADD SLOAD PUSH1 0x80 DUP3 ADD MSTORE PUSH1 0x5 DUP3 ADD DUP1 SLOAD PUSH1 0xA0 SWAP1 SWAP3 ADD SWAP2 PUSH2 0x47A SWAP1 PUSH2 0x1030 JUMP JUMPDEST DUP1 PUSH1 0x1F ADD PUSH1 0x20 DUP1 SWAP2 DIV MUL PUSH1 0x20 ADD PUSH1 0x40 MLOAD SWAP1 DUP2 ADD PUSH1 0x40 MSTORE DUP1 SWAP3 SWAP2 SWAP1 DUP2 DUP2 MSTORE PUSH1 0x20 ADD DUP3 DUP1 SLOAD PUSH2 0x4A6 SWAP1 PUSH2 0x1030 JUMP JUMPDEST DUP1 ISZERO PUSH2 0x4F3 JUMPI DUP1 PUSH1 0x1F LT PUSH2 0x4C8 JUMPI PUSH2 0x100 DUP1 DUP4 SLOAD DIV MUL DUP4 MSTORE SWAP2 PUSH1 0x20 ADD SWAP2 PUSH2 0x4F3 JUMP JUMPDEST DUP3 ADD SWAP2 SWAP1 PUSH1 0x0 MSTORE PUSH1 0x20 PUSH1 0x0 KECCAK256 SWAP1 JUMPDEST DUP2 SLOAD DUP2 MSTORE SWAP1 PUSH1 0x1 ADD SWAP1 PUSH1 0x20 ADD DUP1 DUP4 GT PUSH2 0x4D6 JUMPI DUP3 SWAP1 SUB PUSH1 0x1F AND DUP3 ADD SWAP2 JUMPDEST POP POP POP POP POP DUP2 MSTORE POP POP SWAP1 POP SWAP4 SWAP3 POP POP POP JUMP JUMPDEST PUSH1 0x1 PUSH1 0x1 PUSH1 0xA0 SHL SUB DUP3 AND PUSH1 0x0 SWAP1 DUP2 MSTORE PUSH1 0x20 DUP2 DUP2 MSTORE PUSH1 0x40 DUP1 DUP4 KECCAK256 PUSH1 0xFF DUP6 AND DUP5 MSTORE SWAP1 SWAP2 MSTORE SWAP1 KECCAK256 SLOAD JUMPDEST SWAP3 SWAP2 POP POP JUMP JUMPDEST CALLER PUSH1 0x0 SWAP1 DUP2 MSTORE PUSH1 0x1 PUSH1 0x20 MSTORE PUSH1 0x40 SWAP1 KECCAK256 SLOAD PUSH1 0xFF AND PUSH2 0x560 JUMPI PUSH1 0x40 MLOAD PUSH3 0x461BCD PUSH1 0xE5 SHL DUP2 MSTORE PUSH1 0x4 ADD PUSH2 0x2B6 SWAP1 PUSH2 0x106A JUMP JUMPDEST CALLER PUSH1 0x0 DUP2 DUP2 MSTORE PUSH1 0x2 PUSH1 0x20 SWAP1 DUP2 MSTORE PUSH1 0x40 DUP1 DUP4 KECCAK256 PUSH1 0x1 PUSH1 0x1 PUSH1 0xA0 SHL SUB DUP8 AND DUP1 DUP6 MSTORE SWAP1 DUP4 MSTORE DUP2 DUP5 KECCAK256 PUSH1 0xFF DUP8 AND DUP1 DUP7 MSTORE SWAP1 DUP5 MSTORE SWAP4 DUP3 SWAP1 KECCAK256 DUP1 SLOAD PUSH1 0xFF NOT AND SWAP1 SSTORE SWAP1 MLOAD SWAP3 DUP4 MSTORE SWAP3 SWAP2 PUSH32 0x349FDAC62E52DC85B55B8F76B0F91F1FEF9CA6D4B07755AC804D7C97DA1B1989 SWAP2 ADD JUMPDEST PUSH1 0x40 MLOAD DUP1 SWAP2 SUB SWAP1 LOG3 POP POP JUMP JUMPDEST CALLER PUSH1 0x0 SWAP1 DUP2 MSTORE PUSH1 0x1 PUSH1 0x20 MSTORE PUSH1 0x40 SWAP1 KECCAK256 SLOAD PUSH1 0xFF AND PUSH2 0x601 JUMPI PUSH1 0x40 MLOAD PUSH3 0x461BCD PUSH1 0xE5 SHL DUP2 MSTORE PUSH1 0x4 ADD PUSH2 0x2B6 SWAP1 PUSH2 0x106A JUMP JUMPDEST CALLER PUSH1 0x0 SWAP1 DUP2 MSTORE PUSH1 0x20 DUP2 DUP2 MSTORE PUSH1 0x40 DUP1 DUP4 KECCAK256 PUSH1 0xFF DUP12 AND DUP5 MSTORE SWAP1 SWAP2 MSTORE DUP2 KECCAK256 DUP1 SLOAD SWAP1 SWAP2 PUSH4 0xFFFFFFFF DUP3 AND PUSH2 0x632 JUMPI PUSH1 0x0 PUSH2 0x667 JUMP JUMPDEST DUP3 PUSH2 0x63E PUSH1 0x1 DUP5 PUSH2 0x10A8 JUMP JUMPDEST PUSH4 0xFFFFFFFF AND DUP2 SLOAD DUP2 LT PUSH2 0x654 JUMPI PUSH2 0x654 PUSH2 0x101A JUMP JUMPDEST SWAP1 PUSH1 0x0 MSTORE PUSH1 0x20 PUSH1 0x0 KECCAK256 SWAP1 PUSH1 0x6 MUL ADD PUSH1 0x0 ADD SLOAD JUMPDEST SWAP1 POP DUP3 PUSH1 0x40 MLOAD DUP1 PUSH2 0x100 ADD PUSH1 0x40 MSTORE DUP1 DUP12 DUP2 MSTORE PUSH1 0x20 ADD DUP11 DUP2 MSTORE PUSH1 0x20 ADD DUP10 DUP10 DUP1 DUP1 PUSH1 0x1F ADD PUSH1 0x20 DUP1 SWAP2 DIV MUL PUSH1 0x20 ADD PUSH1 0x40 MLOAD SWAP1 DUP2 ADD PUSH1 0x40 MSTORE DUP1 SWAP4 SWAP3 SWAP2 SWAP1 DUP2 DUP2 MSTORE PUSH1 0x20 ADD DUP4 DUP4 DUP1 DUP3 DUP5 CALLDATACOPY PUSH1 0x0 SWAP3 ADD SWAP2 SWAP1 SWAP2 MSTORE POP POP POP SWAP1 DUP3 MSTORE POP PUSH1 0xFF DUP14 AND PUSH1 0x20 DUP1 DUP4 ADD SWAP2 SWAP1 SWAP2 MSTORE PUSH8 0xFFFFFFFFFFFFFFFF TIMESTAMP AND PUSH1 0x40 DUP1 DUP5 ADD SWAP2 SWAP1 SWAP2 MSTORE PUSH4 0xFFFFFFFF DUP8 AND PUSH1 0x60 DUP5 ADD MSTORE PUSH1 0x80 DUP4 ADD DUP7 SWAP1 MSTORE DUP1 MLOAD PUSH1 0x1F DUP11 ADD DUP4 SWAP1 DIV DUP4 MUL DUP2 ADD DUP4 ADD SWAP1 SWAP2 MSTORE DUP9 DUP2 MSTORE PUSH1 0xA0 SWAP1 SWAP3 ADD SWAP2 SWAP1 DUP10 SWAP1 DUP10 SWAP1 DUP2 SWAP1 DUP5 ADD DUP4 DUP3 DUP1 DUP3 DUP5 CALLDATACOPY PUSH1 0x0 SWAP3 ADD DUP3 SWAP1 MSTORE POP SWAP4 SWAP1 SWAP5 MSTORE POP POP DUP4 SLOAD PUSH1 0x1 DUP2 DUP2 ADD DUP7 SSTORE SWAP5 DUP3 MSTORE PUSH1 0x20 SWAP2 DUP3 SWAP1 KECCAK256 DUP5 MLOAD PUSH1 0x6 SWAP1 SWAP3 MUL ADD SWAP1 DUP2 SSTORE SWAP1 DUP4 ADD MLOAD SWAP4 DUP2 ADD SWAP4 SWAP1 SWAP4 SSTORE POP PUSH1 0x40 DUP2 ADD MLOAD SWAP1 SWAP2 SWAP1 PUSH1 0x2 DUP3 ADD SWAP1 PUSH2 0x767 SWAP1 DUP3 PUSH2 0x1131 JUMP JUMPDEST POP PUSH1 0x60 DUP3 ADD MLOAD PUSH1 0x3 DUP3 ADD DUP1 SLOAD PUSH1 0x80 DUP6 ADD MLOAD PUSH1 0xA0 DUP7 ADD MLOAD PUSH4 0xFFFFFFFF AND PUSH1 0x1 PUSH1 0x48 SHL MUL PUSH13 0xFFFFFFFF000000000000000000 NOT PUSH8 0xFFFFFFFFFFFFFFFF SWAP1 SWAP3 AND PUSH2 0x100 MUL PUSH9 0xFFFFFFFFFFFFFFFFFF NOT SWAP1 SWAP4 AND PUSH1 0xFF SWAP1 SWAP6 AND SWAP5 SWAP1 SWAP5 OR SWAP2 SWAP1 SWAP2 OR AND SWAP2 SWAP1 SWAP2 OR SWAP1 SSTORE PUSH1 0xC0 DUP3 ADD MLOAD PUSH1 0x4 DUP3 ADD SSTORE PUSH1 0xE0 DUP3 ADD MLOAD PUSH1 0x5 DUP3 ADD SWAP1 PUSH2 0x7E8 SWAP1 DUP3 PUSH2 0x1131 JUMP JUMPDEST POP POP POP DUP10 PUSH1 0xFF AND CALLER PUSH1 0x1 PUSH1 0x1 PUSH1 0xA0 SHL SUB AND PUSH32 0x9E0E1784E8B758F6E1D0A719C9D9E54FBB8376BC7A50B83516BD446A8E023D75 DUP5 DUP13 DUP12 DUP12 PUSH1 0x40 MLOAD PUSH2 0x82E SWAP5 SWAP4 SWAP3 SWAP2 SWAP1 PUSH2 0x11F1 JUMP JUMPDEST PUSH1 0x40 MLOAD DUP1 SWAP2 SUB SWAP1 LOG3 POP POP POP POP POP POP POP POP POP POP JUMP JUMPDEST CALLER PUSH1 0x0 SWAP1 DUP2 MSTORE PUSH1 0x1 PUSH1 0x20 MSTORE PUSH1 0x40 SWAP1 KECCAK256 SLOAD PUSH1 0xFF AND PUSH2 0x871 JUMPI PUSH1 0x40 MLOAD PUSH3 0x461BCD PUSH1 0xE5 SHL DUP2 MSTORE PUSH1 0x4 ADD PUSH2 0x2B6 SWAP1 PUSH2 0x106A JUMP JUMPDEST CALLER PUSH1 0x0 DUP2 DUP2 MSTORE PUSH1 0x2 PUSH1 0x20 SWAP1 DUP2 MSTORE PUSH1 0x40 DUP1 DUP4 KECCAK256 PUSH1 0x1 PUSH1 0x1 PUSH1 0xA0 SHL SUB DUP8 AND DUP1 DUP6 MSTORE SWAP1 DUP4 MSTORE DUP2 DUP5 KECCAK256 PUSH1 0xFF DUP8 AND DUP1 DUP7 MSTORE SWAP1 DUP5 MSTORE SWAP4 DUP3 SWAP1 KECCAK256 DUP1 SLOAD PUSH1 0xFF NOT AND PUSH1 0x1 OR SWAP1 SSTORE SWAP1 MLOAD SWAP3 DUP4 MSTORE SWAP3 SWAP2 PUSH32 0xC2B5E6F861F43611062B511ECB54443548E07A6D51239B90892BC2A90B83339E SWAP2 ADD PUSH2 0x5C6 JUMP JUMPDEST PUSH1 0x40 DUP1 MLOAD PUSH2 0x100 DUP2 ADD DUP3 MSTORE PUSH1 0x0 DUP1 DUP3 MSTORE PUSH1 0x20 DUP1 DUP4 ADD DUP3 SWAP1 MSTORE PUSH1 0x60 DUP4 DUP6 ADD DUP2 SWAP1 MSTORE DUP1 DUP5 ADD DUP4 SWAP1 MSTORE PUSH1 0x80 DUP5 ADD DUP4 SWAP1 MSTORE PUSH1 0xA0 DUP5 ADD DUP4 SWAP1 MSTORE PUSH1 0xC0 DUP5 ADD DUP4 SWAP1 MSTORE PUSH1 0xE0 DUP5 ADD MSTORE PUSH1 0x1 PUSH1 0x1 PUSH1 0xA0 SHL SUB DUP7 AND DUP3 MSTORE DUP2 DUP2 MSTORE DUP4 DUP3 KECCAK256 PUSH1 0xFF DUP7 AND DUP4 MSTORE SWAP1 MSTORE SWAP2 SWAP1 SWAP2 KECCAK256 DUP1 SLOAD PUSH2 0x979 JUMPI PUSH1 0x40 MLOAD PUSH3 0x461BCD PUSH1 0xE5 SHL DUP2 MSTORE PUSH1 0x20 PUSH1 0x4 DUP3 ADD MSTORE PUSH1 0xC PUSH1 0x24 DUP3 ADD MSTORE PUSH12 0x4E6F20646F63756D656E7473 PUSH1 0xA0 SHL PUSH1 0x44 DUP3 ADD MSTORE PUSH1 0x64 ADD PUSH2 0x2B6 JUMP JUMPDEST CALLER PUSH1 0x1 PUSH1 0x1 PUSH1 0xA0 SHL SUB DUP6 AND EQ DUP1 PUSH2 0x9BD JUMPI POP PUSH1 0x1 PUSH1 0x1 PUSH1 0xA0 SHL SUB DUP5 AND PUSH1 0x0 SWAP1 DUP2 MSTORE PUSH1 0x2 PUSH1 0x20 SWAP1 DUP2 MSTORE PUSH1 0x40 DUP1 DUP4 KECCAK256 CALLER DUP5 MSTORE DUP3 MSTORE DUP1 DUP4 KECCAK256 PUSH1 0xFF DUP1 DUP9 AND DUP6 MSTORE SWAP3 MSTORE SWAP1 SWAP2 KECCAK256 SLOAD AND JUMPDEST PUSH2 0x9F9 JUMPI PUSH1 0x40 MLOAD PUSH3 0x461BCD PUSH1 0xE5 SHL DUP2 MSTORE PUSH1 0x20 PUSH1 0x4 DUP3 ADD MSTORE PUSH1 0xD PUSH1 0x24 DUP3 ADD MSTORE PUSH13 0x1058D8D95CDCC819195B9A5959 PUSH1 0x9A SHL PUSH1 0x44 DUP3 ADD MSTORE PUSH1 0x64 ADD PUSH2 0x2B6 JUMP JUMPDEST DUP1 SLOAD DUP2 SWAP1 PUSH2 0xA09 SWAP1 PUSH1 0x1 SWAP1 PUSH2 0x1234 JUMP JUMPDEST DUP2 SLOAD DUP2 LT PUSH2 0xA19 JUMPI PUSH2 0xA19 PUSH2 0x101A JUMP JUMPDEST SWAP1 PUSH1 0x0 MSTORE PUSH1 0x20 PUSH1 0x0 KECCAK256 SWAP1 PUSH1 0x6 MUL ADD PUSH1 0x40 MLOAD DUP1 PUSH2 0x100 ADD PUSH1 0x40 MSTORE SWAP1 DUP2 PUSH1 0x0 DUP3 ADD SLOAD DUP2 MSTORE PUSH1 0x20 ADD PUSH1 0x1 DUP3 ADD SLOAD DUP2 MSTORE PUSH1 0x20 ADD PUSH1 0x2 DUP3 ADD DUP1 SLOAD PUSH2 0xA57 SWAP1 PUSH2 0x1030 JUMP JUMPDEST DUP1 PUSH1 0x1F ADD PUSH1 0x20 DUP1 SWAP2 DIV MUL PUSH1 0x20 ADD PUSH1 0x40 MLOAD SWAP1 DUP2 ADD PUSH1 0x40 MSTORE DUP1 SWAP3 SWAP2 SWAP1 DUP2 DUP2 MSTORE PUSH1 0x20 ADD DUP3 DUP1 SLOAD PUSH2 0xA83 SWAP1 PUSH2 0x1030 JUMP JUMPDEST DUP1 ISZERO PUSH2 0xAD0 JUMPI DUP1 PUSH1 0x1F LT PUSH2 0xAA5 JUMPI PUSH2 0x100 DUP1 DUP4 SLOAD DIV MUL DUP4 MSTORE SWAP2 PUSH1 0x20 ADD SWAP2 PUSH2 0xAD0 JUMP JUMPDEST DUP3 ADD SWAP2 SWAP1 PUSH1 0x0 MSTORE PUSH1 0x20 PUSH1 0x0 KECCAK256 SWAP1 JUMPDEST DUP2 SLOAD DUP2 MSTORE SWAP1 PUSH1 0x1 ADD SWAP1 PUSH1 0x20 ADD DUP1 DUP4 GT PUSH2 0xAB3 JUMPI DUP3 SWAP1 SUB PUSH1 0x1F AND DUP3 ADD SWAP2 JUMPDEST POP POP POP SWAP2 DUP4 MSTORE POP POP PUSH1 0x3 DUP3 ADD SLOAD PUSH1 0xFF DUP2 AND PUSH1 0x20 DUP4 ADD MSTORE PUSH2 0x100 DUP2 DIV PUSH8 0xFFFFFFFFFFFFFFFF AND PUSH1 0x40 DUP4 ADD MSTORE PUSH1 0x1 PUSH1 0x48 SHL SWAP1 DIV PUSH4 0xFFFFFFFF AND PUSH1 0x60 DUP3 ADD MSTORE PUSH1 0x4 DUP3 ADD SLOAD PUSH1 0x80 DUP3 ADD MSTORE PUSH1 0x5 DUP3 ADD DUP1 SLOAD PUSH1 0xA0 SWAP1 SWAP3 ADD SWAP2 PUSH2 0xB2B SWAP1 PUSH2 0x1030 JUMP JUMPDEST DUP1 PUSH1 0x1F ADD PUSH1 0x20 DUP1 SWAP2 DIV MUL PUSH1 0x20 ADD PUSH1 0x40 MLOAD SWAP1 DUP2 ADD PUSH1 0x40 MSTORE DUP1 SWAP3 SWAP2 SWAP1 DUP2 DUP2 MSTORE PUSH1 0x20 ADD DUP3 DUP1 SLOAD PUSH2 0xB57 SWAP1 PUSH2 0x1030 JUMP JUMPDEST DUP1 ISZERO PUSH2 0xBA4 JUMPI DUP1 PUSH1 0x1F LT PUSH2 0xB79 JUMPI PUSH2 0x100 DUP1 DUP4 SLOAD DIV MUL DUP4 MSTORE SWAP2 PUSH1 0x20 ADD SWAP2 PUSH2 0xBA4 JUMP JUMPDEST DUP3 ADD SWAP2 SWAP1 PUSH1 0x0 MSTORE PUSH1 0x20 PUSH1 0x0 KECCAK256 SWAP1 JUMPDEST DUP2 SLOAD DUP2 MSTORE SWAP1 PUSH1 0x1 ADD SWAP1 PUSH1 0x20 ADD DUP1 DUP4 GT PUSH2 0xB87 JUMPI DUP3 SWAP1 SUB PUSH1 0x1F AND DUP3 ADD SWAP2 JUMPDEST POP POP POP POP POP DUP2 MSTORE POP POP SWAP2 POP POP SWAP3 SWAP2 POP POP JUMP JUMPDEST PUSH1 0x1 PUSH1 0x1 PUSH1 0xA0 SHL SUB DUP5 AND PUSH1 0x0 SWAP1 DUP2 MSTORE PUSH1 0x20 DUP2 DUP2 MSTORE PUSH1 0x40 DUP1 DUP4 KECCAK256 PUSH1 0xFF DUP8 AND DUP5 MSTORE SWAP1 SWAP2 MSTORE DUP2 KECCAK256 SLOAD PUSH4 0xFFFFFFFF DUP5 AND LT PUSH2 0xBEF JUMPI POP PUSH1 0x0 PUSH2 0x1F2 JUMP JUMPDEST PUSH1 0x1 PUSH1 0x1 PUSH1 0xA0 SHL SUB DUP6 AND PUSH1 0x0 SWAP1 DUP2 MSTORE PUSH1 0x20 DUP2 DUP2 MSTORE PUSH1 0x40 DUP1 DUP4 KECCAK256 PUSH1 0xFF DUP9 AND DUP5 MSTORE SWAP1 SWAP2 MSTORE SWAP1 KECCAK256 DUP1 SLOAD DUP4 SWAP2 SWAP1 PUSH4 0xFFFFFFFF DUP7 AND SWAP1 DUP2 LT PUSH2 0xC2E JUMPI PUSH2 0xC2E PUSH2 0x101A JUMP JUMPDEST SWAP1 PUSH1 0x0 MSTORE PUSH1 0x20 PUSH1 0x0 KECCAK256 SWAP1 PUSH1 0x6 MUL ADD PUSH1 0x0 ADD SLOAD EQ SWAP1 POP SWAP5 SWAP4 POP POP POP POP JUMP JUMPDEST CALLER PUSH1 0x0 SWAP1 DUP2 MSTORE PUSH1 0x1 PUSH1 0x20 MSTORE PUSH1 0x40 SWAP1 KECCAK256 SLOAD PUSH1 0xFF AND ISZERO PUSH2 0xCA0 JUMPI PUSH1 0x40 MLOAD PUSH3 0x461BCD PUSH1 0xE5 SHL DUP2 MSTORE PUSH1 0x20 PUSH1 0x4 DUP3 ADD MSTORE PUSH1 0x12 PUSH1 0x24 DUP3 ADD MSTORE PUSH18 0x105B1C9958591E481C9959DA5CDD195C9959 PUSH1 0x72 SHL PUSH1 0x44 DUP3 ADD MSTORE PUSH1 0x64 ADD PUSH2 0x2B6 JUMP JUMPDEST CALLER PUSH1 0x0 DUP2 DUP2 MSTORE PUSH1 0x1 PUSH1 0x20 DUP2 DUP2 MSTORE PUSH1 0x40 SWAP3 DUP4 SWAP1 KECCAK256 DUP1 SLOAD PUSH1 0xFF NOT AND SWAP1 SWAP3 OR SWAP1 SWAP2 SSTORE SWAP1 MLOAD PUSH8 0xFFFFFFFFFFFFFFFF TIMESTAMP AND DUP2 MSTORE PUSH32 0xE60A3E37A71D811F21074034FD64F05048318F6349B1503EFF836E66E4427553 SWAP2 ADD PUSH1 0x40 MLOAD DUP1 SWAP2 SUB SWAP1 LOG2 JUMP JUMPDEST DUP1 CALLDATALOAD PUSH1 0x1 PUSH1 0x1 PUSH1 0xA0 SHL SUB DUP2 AND DUP2 EQ PUSH2 0xD12 JUMPI PUSH1 0x0 DUP1 REVERT JUMPDEST SWAP2 SWAP1 POP JUMP JUMPDEST DUP1 CALLDATALOAD PUSH1 0xFF DUP2 AND DUP2 EQ PUSH2 0xD12 JUMPI PUSH1 0x0 DUP1 REVERT JUMPDEST PUSH1 0x0 DUP1 PUSH1 0x0 PUSH1 0x60 DUP5 DUP7 SUB SLT ISZERO PUSH2 0xD3D JUMPI PUSH1 0x0 DUP1 REVERT JUMPDEST PUSH2 0xD46 DUP5 PUSH2 0xCFB JUMP JUMPDEST SWAP3 POP PUSH2 0xD54 PUSH1 0x20 DUP6 ADD PUSH2 0xCFB JUMP JUMPDEST SWAP2 POP PUSH2 0xD62 PUSH1 0x40 DUP6 ADD PUSH2 0xD17 JUMP JUMPDEST SWAP1 POP SWAP3 POP SWAP3 POP SWAP3 JUMP JUMPDEST DUP1 CALLDATALOAD PUSH4 0xFFFFFFFF DUP2 AND DUP2 EQ PUSH2 0xD12 JUMPI PUSH1 0x0 DUP1 REVERT JUMPDEST PUSH1 0x0 DUP1 PUSH1 0x0 PUSH1 0x60 DUP5 DUP7 SUB SLT ISZERO PUSH2 0xD94 JUMPI PUSH1 0x0 DUP1 REVERT JUMPDEST PUSH2 0xD9D DUP5 PUSH2 0xCFB JUMP JUMPDEST SWAP3 POP PUSH2 0xDAB PUSH1 0x20 DUP6 ADD PUSH2 0xD17 JUMP JUMPDEST SWAP2 POP PUSH2 0xD62 PUSH1 0x40 DUP6 ADD PUSH2 0xD6B JUMP JUMPDEST PUSH1 0x0 DUP2 MLOAD DUP1 DUP5 MSTORE PUSH1 0x0 JUMPDEST DUP2 DUP2 LT ISZERO PUSH2 0xDDF JUMPI PUSH1 0x20 DUP2 DUP6 ADD DUP2 ADD MLOAD DUP7 DUP4 ADD DUP3 ADD MSTORE ADD PUSH2 0xDC3 JUMP JUMPDEST POP PUSH1 0x0 PUSH1 0x20 DUP3 DUP7 ADD ADD MSTORE PUSH1 0x20 PUSH1 0x1F NOT PUSH1 0x1F DUP4 ADD AND DUP6 ADD ADD SWAP2 POP POP SWAP3 SWAP2 POP POP JUMP JUMPDEST PUSH1 0x20 DUP2 MSTORE DUP2 MLOAD PUSH1 0x20 DUP3 ADD MSTORE PUSH1 0x20 DUP3 ADD MLOAD PUSH1 0x40 DUP3 ADD MSTORE PUSH1 0x0 PUSH1 0x40 DUP4 ADD MLOAD PUSH2 0x100 DUP1 PUSH1 0x60 DUP6 ADD MSTORE PUSH2 0xE32 PUSH2 0x120 DUP6 ADD DUP4 PUSH2 0xDB9 JUMP JUMPDEST SWAP2 POP PUSH1 0xFF PUSH1 0x60 DUP7 ADD MLOAD AND PUSH1 0x80 DUP6 ADD MSTORE PUSH1 0x80 DUP6 ADD MLOAD PUSH2 0xE5C PUSH1 0xA0 DUP7 ADD DUP3 PUSH8 0xFFFFFFFFFFFFFFFF AND SWAP1 MSTORE JUMP JUMPDEST POP PUSH1 0xA0 DUP6 ADD MLOAD PUSH4 0xFFFFFFFF DUP2 AND PUSH1 0xC0 DUP7 ADD MSTORE POP PUSH1 0xC0 DUP6 ADD MLOAD PUSH1 0xE0 DUP6 ADD MSTORE PUSH1 0xE0 DUP6 ADD MLOAD PUSH1 0x1F NOT DUP6 DUP5 SUB ADD DUP3 DUP7 ADD MSTORE PUSH2 0xE93 DUP4 DUP3 PUSH2 0xDB9 JUMP JUMPDEST SWAP7 SWAP6 POP POP POP POP POP POP JUMP JUMPDEST PUSH1 0x0 DUP1 PUSH1 0x40 DUP4 DUP6 SUB SLT ISZERO PUSH2 0xEB0 JUMPI PUSH1 0x0 DUP1 REVERT JUMPDEST PUSH2 0xEB9 DUP4 PUSH2 0xCFB JUMP JUMPDEST SWAP2 POP PUSH2 0xEC7 PUSH1 0x20 DUP5 ADD PUSH2 0xD17 JUMP JUMPDEST SWAP1 POP SWAP3 POP SWAP3 SWAP1 POP JUMP JUMPDEST PUSH1 0x0 DUP1 DUP4 PUSH1 0x1F DUP5 ADD SLT PUSH2 0xEE2 JUMPI PUSH1 0x0 DUP1 REVERT JUMPDEST POP DUP2 CALLDATALOAD PUSH8 0xFFFFFFFFFFFFFFFF DUP2 GT ISZERO PUSH2 0xEFA JUMPI PUSH1 0x0 DUP1 REVERT JUMPDEST PUSH1 0x20 DUP4 ADD SWAP2 POP DUP4 PUSH1 0x20 DUP3 DUP6 ADD ADD GT ISZERO PUSH2 0xF12 JUMPI PUSH1 0x0 DUP1 REVERT JUMPDEST SWAP3 POP SWAP3 SWAP1 POP JUMP JUMPDEST PUSH1 0x0 DUP1 PUSH1 0x0 DUP1 PUSH1 0x0 DUP1 PUSH1 0x0 PUSH1 0xA0 DUP9 DUP11 SUB SLT ISZERO PUSH2 0xF34 JUMPI PUSH1 0x0 DUP1 REVERT JUMPDEST PUSH2 0xF3D DUP9 PUSH2 0xD17 JUMP JUMPDEST SWAP7 POP PUSH1 0x20 DUP9 ADD CALLDATALOAD SWAP6 POP PUSH1 0x40 DUP9 ADD CALLDATALOAD SWAP5 POP PUSH1 0x60 DUP9 ADD CALLDATALOAD PUSH8 0xFFFFFFFFFFFFFFFF DUP1 DUP3 GT ISZERO PUSH2 0xF68 JUMPI PUSH1 0x0 DUP1 REVERT JUMPDEST PUSH2 0xF74 DUP12 DUP4 DUP13 ADD PUSH2 0xED0 JUMP JUMPDEST SWAP1 SWAP7 POP SWAP5 POP PUSH1 0x80 DUP11 ADD CALLDATALOAD SWAP2 POP DUP1 DUP3 GT ISZERO PUSH2 0xF8D JUMPI PUSH1 0x0 DUP1 REVERT JUMPDEST POP PUSH2 0xF9A DUP11 DUP3 DUP12 ADD PUSH2 0xED0 JUMP JUMPDEST SWAP9 SWAP12 SWAP8 SWAP11 POP SWAP6 SWAP9 POP SWAP4 SWAP7 SWAP3 SWAP6 SWAP3 SWAP4 POP POP POP JUMP JUMPDEST PUSH1 0x0 DUP1 PUSH1 0x0 DUP1 PUSH1 0x80 DUP6 DUP8 SUB SLT ISZERO PUSH2 0xFC3 JUMPI PUSH1 0x0 DUP1 REVERT JUMPDEST PUSH2 0xFCC DUP6 PUSH2 0xCFB JUMP JUMPDEST SWAP4 POP PUSH2 0xFDA PUSH1 0x20 DUP7 ADD PUSH2 0xD17 JUMP JUMPDEST SWAP3 POP PUSH2 0xFE8 PUSH1 0x40 DUP7 ADD PUSH2 0xD6B JUMP JUMPDEST SWAP4 SWAP7 SWAP3 SWAP6 POP SWAP3 SWAP4 PUSH1 0x60 ADD CALLDATALOAD SWAP3 POP POP JUMP JUMPDEST PUSH1 0x0 PUSH1 0x20 DUP3 DUP5 SUB SLT ISZERO PUSH2 0x100A JUMPI PUSH1 0x0 DUP1 REVERT JUMPDEST PUSH2 0x1013 DUP3 PUSH2 0xCFB JUMP JUMPDEST SWAP4 SWAP3 POP POP POP JUMP JUMPDEST PUSH4 0x4E487B71 PUSH1 0xE0 SHL PUSH1 0x0 MSTORE PUSH1 0x32 PUSH1 0x4 MSTORE PUSH1 0x24 PUSH1 0x0 REVERT JUMPDEST PUSH1 0x1 DUP2 DUP2 SHR SWAP1 DUP3 AND DUP1 PUSH2 0x1044 JUMPI PUSH1 0x7F DUP3 AND SWAP2 POP JUMPDEST PUSH1 0x20 DUP3 LT DUP2 SUB PUSH2 0x1064 JUMPI PUSH4 0x4E487B71 PUSH1 0xE0 SHL PUSH1 0x0 MSTORE PUSH1 0x22 PUSH1 0x4 MSTORE PUSH1 0x24 PUSH1 0x0 REVERT JUMPDEST POP SWAP2 SWAP1 POP JUMP JUMPDEST PUSH1 0x20 DUP1 DUP3 MSTORE PUSH1 0xE SWAP1 DUP3 ADD MSTORE PUSH14 0x139BDD081C9959DA5CDD195C9959 PUSH1 0x92 SHL PUSH1 0x40 DUP3 ADD MSTORE PUSH1 0x60 ADD SWAP1 JUMP JUMPDEST PUSH4 0x4E487B71 PUSH1 0xE0 SHL PUSH1 0x0 MSTORE PUSH1 0x11 PUSH1 0x4 MSTORE PUSH1 0x24 PUSH1 0x0 REVERT JUMPDEST PUSH4 0xFFFFFFFF DUP3 DUP2 AND DUP3 DUP3 AND SUB SWAP1 DUP1 DUP3 GT ISZERO PUSH2 0x10C5 JUMPI PUSH2 0x10C5 PUSH2 0x1092 JUMP JUMPDEST POP SWAP3 SWAP2 POP POP JUMP JUMPDEST PUSH4 0x4E487B71 PUSH1 0xE0 SHL PUSH1 0x0 MSTORE PUSH1 0x41 PUSH1 0x4 MSTORE PUSH1 0x24 PUSH1 0x0 REVERT JUMPDEST PUSH1 0x1F DUP3 GT ISZERO PUSH2 0x112C JUMPI PUSH1 0x0 DUP2 DUP2 MSTORE PUSH1 0x20 DUP2 KECCAK256 PUSH1 0x1F DUP6 ADD PUSH1 0x5 SHR DUP2 ADD PUSH1 0x20 DUP7 LT ISZERO PUSH2 0x1109 JUMPI POP DUP1 JUMPDEST PUSH1 0x1F DUP6 ADD PUSH1 0x5 SHR DUP3 ADD SWAP2 POP JUMPDEST DUP2 DUP2 LT ISZERO PUSH2 0x1128 JUMPI DUP3 DUP2 SSTORE PUSH1 0x1 ADD PUSH2 0x1115 JUMP JUMPDEST POP POP POP JUMPDEST POP POP POP JUMP JUMPDEST DUP2 MLOAD PUSH8 0xFFFFFFFFFFFFFFFF DUP2 GT ISZERO PUSH2 0x114B JUMPI PUSH2 0x114B PUSH2 0x10CC JUMP JUMPDEST PUSH2 0x115F DUP2 PUSH2 0x1159 DUP5 SLOAD PUSH2 0x1030 JUMP JUMPDEST DUP5 PUSH2 0x10E2 JUMP JUMPDEST PUSH1 0x20 DUP1 PUSH1 0x1F DUP4 GT PUSH1 0x1 DUP2 EQ PUSH2 0x1194 JUMPI PUSH1 0x0 DUP5 ISZERO PUSH2 0x117C JUMPI POP DUP6 DUP4 ADD MLOAD JUMPDEST PUSH1 0x0 NOT PUSH1 0x3 DUP7 SWAP1 SHL SHR NOT AND PUSH1 0x1 DUP6 SWAP1 SHL OR DUP6 SSTORE PUSH2 0x1128 JUMP JUMPDEST PUSH1 0x0 DUP6 DUP2 MSTORE PUSH1 0x20 DUP2 KECCAK256 PUSH1 0x1F NOT DUP7 AND SWAP2 JUMPDEST DUP3 DUP2 LT ISZERO PUSH2 0x11C3 JUMPI DUP9 DUP7 ADD MLOAD DUP3 SSTORE SWAP5 DUP5 ADD SWAP5 PUSH1 0x1 SWAP1 SWAP2 ADD SWAP1 DUP5 ADD PUSH2 0x11A4 JUMP JUMPDEST POP DUP6 DUP3 LT ISZERO PUSH2 0x11E1 JUMPI DUP8 DUP6 ADD MLOAD PUSH1 0x0 NOT PUSH1 0x3 DUP9 SWAP1 SHL PUSH1 0xF8 AND SHR NOT AND DUP2 SSTORE JUMPDEST POP POP POP POP POP PUSH1 0x1 SWAP1 DUP2 SHL ADD SWAP1 SSTORE POP JUMP JUMPDEST PUSH4 0xFFFFFFFF DUP6 AND DUP2 MSTORE DUP4 PUSH1 0x20 DUP3 ADD MSTORE PUSH1 0x60 PUSH1 0x40 DUP3 ADD MSTORE DUP2 PUSH1 0x60 DUP3 ADD MSTORE DUP2 DUP4 PUSH1 0x80 DUP4 ADD CALLDATACOPY PUSH1 0x0 DUP2 DUP4 ADD PUSH1 0x80 SWAP1 DUP2 ADD SWAP2 SWAP1 SWAP2 MSTORE PUSH1 0x1F SWAP1 SWAP3 ADD PUSH1 0x1F NOT AND ADD ADD SWAP4 SWAP3 POP POP POP JUMP JUMPDEST DUP2 DUP2 SUB DUP2 DUP2 GT ISZERO PUSH2 0x52B JUMPI PUSH2 0x52B PUSH2 0x1092 JUMP INVALID LOG2 PUSH5 0x6970667358 0x22 SLT KECCAK256 SWAP1 EXTCODEHASH 0x25 0x2E 0x5D 0x2E 0x23 0xD 0x28 0xD3 0xEF SWAP1 CHAINID MSTORE 0xCE 0xAD 0x5C 0xC4 PUSH3 0xC853A 0x27 0x1E 0x27 AND PUSH15 0xB6F35123DE64736F6C634300081400 CALLER "},"methodIdentifiers":{"documentAt(address,uint8,uint32)":"2bf28a29","documentCount(address,uint8)":"67631619","grantAccess(address,uint8)":"87ed1bd0","hasAccess(address,address,uint8)":"17888263","latestDocument(address,uint8)":"ab084fee","registerSoul()":"ca9ace4f","registered(address)":"b2dd5c07","revokeAccess(address,uint8)":"6f925535","verifyDocument(address,uint8,uint32,bytes32)":"afe8e794","writeDocument(uint8,bytes32,bytes32,string,bytes)":"7f761cfe"}}}}}