{"contracts/SoulRegistry.sol":{"SoulRegistry":{"abi":[{"anonymous":false,"inputs":[{"indexed":true,"internalType":"address","name":"agent","type":"address"},{"indexed":true,"internalType":"address","name":"reader","type":"address"},{"indexed":false,"internalType":"uint8","name":"docType","type":"uint8"}],"name":"AccessGranted","type":"event"},{"anonymous":false,"inputs":[{"indexed":true,"internalType":"address","name":"owner","type":"address"},{"indexed":true,"internalType":"address","name":"reader","type":"address"},{"indexed":false,"internalType":"uint8","name":"docType","type":"uint8"}],"name":"AccessKeyStored","type":"event"},{"anonymous":false,"inputs":[{"indexed":true,"internalType":"address","name":"agent","type":"address"},{"indexed":true,"internalType":"address","name":"reader","type":"address"},{"indexed":false,"internalType":"uint8","name":"docType","type":"uint8"}],"name":"AccessRevoked","type":"event"},{"anonymous":false,"inputs":[{"indexed":true,"internalType":"address","name":"parent","type":"address"},{"indexed":true,"internalType":"address","name":"child","type":"address"}],"name":"ChildRegistered","type":"event"},{"anonymous":false,"inputs":[{"indexed":true,"internalType":"address","name":"agent","type":"address"},{"indexed":true,"internalType":"uint8","name":"docType","type":"uint8"},{"indexed":false,"internalType":"uint32","name":"version","type":"uint32"},{"indexed":false,"internalType":"bytes32","name":"contentHash","type":"bytes32"},{"indexed":false,"internalType":"string","name":"storageCid","type":"string"}],"name":"DocumentWritten","type":"event"},{"anonymous":false,"inputs":[{"indexed":true,"internalType":"address","name":"agent","type":"address"},{"indexed":false,"internalType":"uint64","name":"timestamp","type":"uint64"}],"name":"SoulRegistered","type":"event"},{"inputs":[{"internalType":"address","name":"","type":"address"},{"internalType":"uint256","name":"","type":"uint256"}],"name":"children","outputs":[{"internalType":"address","name":"","type":"address"}],"stateMutability":"view","type":"function"},{"inputs":[{"internalType":"address","name":"agent","type":"address"},{"internalType":"uint8","name":"docType","type":"uint8"},{"internalType":"uint32","name":"version","type":"uint32"}],"name":"documentAt","outputs":[{"components":[{"internalType":"bytes32","name":"contentHash","type":"bytes32"},{"internalType":"bytes32","name":"encryptedHash","type":"bytes32"},{"internalType":"string","name":"storageCid","type":"string"},{"internalType":"uint8","name":"docType","type":"uint8"},{"internalType":"uint64","name":"timestamp","type":"uint64"},{"internalType":"uint32","name":"version","type":"uint32"},{"internalType":"bytes32","name":"prevHash","type":"bytes32"},{"internalType":"bytes","name":"signature","type":"bytes"}],"internalType":"struct SoulRegistry.DocumentEntry","name":"","type":"tuple"}],"stateMutability":"view","type":"function"},{"inputs":[{"internalType":"address","name":"agent","type":"address"},{"internalType":"uint8","name":"docType","type":"uint8"}],"name":"documentCount","outputs":[{"internalType":"uint32","name":"","type":"uint32"}],"stateMutability":"view","type":"function"},{"inputs":[{"internalType":"address","name":"owner","type":"address"},{"internalType":"address","name":"reader","type":"address"},{"internalType":"uint8","name":"docType","type":"uint8"}],"name":"getAccessKey","outputs":[{"internalType":"bytes","name":"","type":"bytes"}],"stateMutability":"view","type":"function"},{"inputs":[{"internalType":"address","name":"agent","type":"address"}],"name":"getChildren","outputs":[{"internalType":"address[]","name":"","type":"address[]"}],"stateMutability":"view","type":"function"},{"inputs":[{"internalType":"address","name":"agent","type":"address"}],"name":"getParent","outputs":[{"internalType":"address","name":"","type":"address"}],"stateMutability":"view","type":"function"},{"inputs":[{"internalType":"address","name":"reader","type":"address"},{"internalType":"uint8","name":"docType","type":"uint8"}],"name":"grantAccess","outputs":[],"stateMutability":"nonpayable","type":"function"},{"inputs":[{"internalType":"address","name":"agent","type":"address"},{"internalType":"address","name":"reader","type":"address"},{"internalType":"uint8","name":"docType","type":"uint8"}],"name":"hasAccess","outputs":[{"internalType":"bool","name":"","type":"bool"}],"stateMutability":"view","type":"function"},{"inputs":[{"internalType":"address","name":"agent","type":"address"},{"internalType":"uint8","name":"docType","type":"uint8"}],"name":"latestDocument","outputs":[{"components":[{"internalType":"bytes32","name":"contentHash","type":"bytes32"},{"internalType":"bytes32","name":"encryptedHash","type":"bytes32"},{"internalType":"string","name":"storageCid","type":"string"},{"internalType":"uint8","name":"docType","type":"uint8"},{"internalType":"uint64","name":"timestamp","type":"uint64"},{"internalType":"uint32","name":"version","type":"uint32"},{"internalType":"bytes32","name":"prevHash","type":"bytes32"},{"internalType":"bytes","name":"signature","type":"bytes"}],"internalType":"struct SoulRegistry.DocumentEntry","name":"","type":"tuple"}],"stateMutability":"view","type":"function"},{"inputs":[{"internalType":"address","name":"","type":"address"}],"name":"parent","outputs":[{"internalType":"address","name":"","type":"address"}],"stateMutability":"view","type":"function"},{"inputs":[{"internalType":"address","name":"child","type":"address"}],"name":"registerChild","outputs":[],"stateMutability":"nonpayable","type":"function"},{"inputs":[],"name":"registerSoul","outputs":[],"stateMutability":"nonpayable","type":"function"},{"inputs":[{"internalType":"address","name":"","type":"address"}],"name":"registered","outputs":[{"internalType":"bool","name":"","type":"bool"}],"stateMutability":"view","type":"function"},{"inputs":[{"internalType":"address","name":"reader","type":"address"},{"internalType":"uint8","name":"docType","type":"uint8"}],"name":"removeAccessKey","outputs":[],"stateMutability":"nonpayable","type":"function"},{"inputs":[{"internalType":"address","name":"reader","type":"address"},{"internalType":"uint8","name":"docType","type":"uint8"}],"name":"revokeAccess","outputs":[],"stateMutability":"nonpayable","type":"function"},{"inputs":[{"internalType":"address","name":"reader","type":"address"},{"internalType":"uint8","name":"docType","type":"uint8"},{"internalType":"bytes","name":"encryptedKey","type":"bytes"}],"name":"storeAccessKey","outputs":[],"stateMutability":"nonpayable","type":"function"},{"inputs":[{"internalType":"address","name":"agent","type":"address"},{"internalType":"uint8","name":"docType","type":"uint8"},{"internalType":"uint32","name":"version","type":"uint32"},{"internalType":"bytes32","name":"expectedHash","type":"bytes32"}],"name":"verifyDocument","outputs":[{"internalType":"bool","name":"","type":"bool"}],"stateMutability":"view","type":"function"},{"inputs":[{"internalType":"uint8","name":"docType","type":"uint8"},{"internalType":"bytes32","name":"contentHash","type":"bytes32"},{"internalType":"bytes32","name":"encryptedHash","type":"bytes32"},{"internalType":"string","name":"storageCid","type":"string"},{"internalType":"bytes","name":"signature","type":"bytes"}],"name":"writeDocument","outputs":[],"stateMutability":"nonpayable","type":"function"}],"evm":{"bytecode":{"linkReferences":{},"object":"608060405234801561001057600080fd5b50611b4b806100206000396000f3fe608060405234801561001057600080fd5b50600436106101165760003560e01c80637f761cfe116100a2578063ab084fee11610071578063ab084fee14610296578063afe8e794146102a9578063b2dd5c07146102bc578063ca9ace4f146102df578063f1f9d8c9146102e757600080fd5b80637f761cfe1461023157806387ed1bd0146102445780638b687ef014610257578063a94059231461026a57600080fd5b80632ff296d5116100e95780632ff296d51461018b5780634e94f499146101ab57806367631619146101d65780636999fa45146101fe5780636f9255351461021e57600080fd5b80630f9ae37c1461011b57806317888263146101305780632bf28a29146101585780632cad2aeb14610178575b600080fd5b61012e610129366004611493565b610310565b005b61014361013e3660046114f4565b6103cb565b60405190151581526020015b60405180910390f35b61016b61016636600461154b565b61044d565b60405161014f91906115cb565b61012e610186366004611669565b610777565b61019e6101993660046114f4565b6107e1565b60405161014f919061169c565b6101be6101b93660046116b6565b61093e565b6040516001600160a01b03909116815260200161014f565b6101e96101e4366004611669565b610976565b60405163ffffffff909116815260200161014f565b61021161020c3660046116e0565b6109a2565b60405161014f91906116fb565b61012e61022c366004611669565b610a18565b61012e61023f366004611748565b610ab9565b61012e610252366004611669565b610d29565b61012e6102653660046116e0565b610dc5565b6101be6102783660046116e0565b6001600160a01b039081166000908152600460205260409020541690565b61016b6102a4366004611669565b610f86565b6101436102b73660046117dc565b611282565b6101436102ca3660046116e0565b60016020526000908152604090205460ff1681565b61012e611317565b6101be6102f53660046116e0565b6004602052600090815260409020546001600160a01b031681565b3360009081526001602052604090205460ff166103485760405162461bcd60e51b815260040161033f90611827565b60405180910390fd5b3360009081526005602090815260408083206001600160a01b0388168452825280832060ff8716845290915290206103818284836118ee565b5060405160ff841681526001600160a01b0385169033907feebad4c64f67436e65f09510c1605f415a81cd2218d191ead7ece46b523a58009060200160405180910390a350505050565b6000826001600160a01b0316846001600160a01b0316148061041e57506001600160a01b038085166000908152600260209081526040808320938716835292815282822060ff8087168452915291902054165b8061044557506001600160a01b038481166000908152600460205260409020548116908416145b949350505050565b604080516101008101825260008082526020820181905260609282018390528282018190526080820181905260a0820181905260c082015260e0810191909152336001600160a01b03851614806104d157506001600160a01b0384166000908152600260209081526040808320338452825280832060ff8088168552925290912054165b806104f557506001600160a01b038481166000908152600460205260409020541633145b6105315760405162461bcd60e51b815260206004820152600d60248201526c1058d8d95cdcc819195b9a5959609a1b604482015260640161033f565b6001600160a01b03841660009081526020818152604080832060ff8716845290915290205463ffffffff83161061059e5760405162461bcd60e51b815260206004820152601160248201527015995c9cda5bdb881b9bdd08199bdd5b99607a1b604482015260640161033f565b6001600160a01b03841660009081526020818152604080832060ff871684529091529020805463ffffffff84169081106105da576105da6119af565b906000526020600020906006020160405180610100016040529081600082015481526020016001820154815260200160028201805461061890611865565b80601f016020809104026020016040519081016040528092919081815260200182805461064490611865565b80156106915780601f1061066657610100808354040283529160200191610691565b820191906000526020600020905b81548152906001019060200180831161067457829003601f168201915b5050509183525050600382015460ff81166020830152610100810467ffffffffffffffff166040830152600160481b900463ffffffff1660608201526004820154608082015260058201805460a0909201916106ec90611865565b80601f016020809104026020016040519081016040528092919081815260200182805461071890611865565b80156107655780601f1061073a57610100808354040283529160200191610765565b820191906000526020600020905b81548152906001019060200180831161074857829003601f168201915b50505050508152505090509392505050565b3360009081526001602052604090205460ff166107a65760405162461bcd60e51b815260040161033f90611827565b3360009081526005602090815260408083206001600160a01b0386168452825280832060ff8516845290915281206107dd916113c7565b5050565b6060336001600160a01b03851614806108025750336001600160a01b038416145b8061082657506001600160a01b038481166000908152600460205260409020541633145b61087c5760405162461bcd60e51b815260206004820152602160248201527f4e6f7420617574686f72697a656420746f207265616420616363657373206b656044820152607960f81b606482015260840161033f565b6001600160a01b038085166000908152600560209081526040808320938716835292815282822060ff8616835290522080546108b790611865565b80601f01602080910402602001604051908101604052809291908181526020018280546108e390611865565b80156109305780601f1061090557610100808354040283529160200191610930565b820191906000526020600020905b81548152906001019060200180831161091357829003601f168201915b505050505090509392505050565b6003602052816000526040600020818154811061095a57600080fd5b6000918252602090912001546001600160a01b03169150829050565b6001600160a01b03821660009081526020818152604080832060ff851684529091529020545b92915050565b6001600160a01b038116600090815260036020908152604091829020805483518184028101840190945280845260609392830182828015610a0c57602002820191906000526020600020905b81546001600160a01b031681526001909101906020018083116109ee575b50505050509050919050565b3360009081526001602052604090205460ff16610a475760405162461bcd60e51b815260040161033f90611827565b3360008181526002602090815260408083206001600160a01b03871680855290835281842060ff871680865290845293829020805460ff19169055905192835292917f349fdac62e52dc85b55b8f76b0f91f1fef9ca6d4b07755ac804d7c97da1b198991015b60405180910390a35050565b3360009081526001602052604090205460ff16610ae85760405162461bcd60e51b815260040161033f90611827565b3360009081526020818152604080832060ff8b16845290915281208054909163ffffffff8216610b19576000610b4e565b82610b256001846119db565b63ffffffff1681548110610b3b57610b3b6119af565b9060005260206000209060060201600001545b9050826040518061010001604052808b81526020018a815260200189898080601f01602080910402602001604051908101604052809392919081815260200183838082843760009201919091525050509082525060ff8d1660208083019190915267ffffffffffffffff421660408084019190915263ffffffff87166060840152608083018690528051601f8a0183900483028101830190915288815260a0909201919089908990819084018382808284376000920182905250939094525050835460018181018655948252602091829020845160069092020190815590830151938101939093555060408101519091906002820190610c4e90826119ff565b506060820151600382018054608085015160a086015163ffffffff16600160481b026cffffffff0000000000000000001967ffffffffffffffff9092166101000268ffffffffffffffffff1990931660ff90951694909417919091171691909117905560c0820151600482015560e08201516005820190610ccf90826119ff565b5050508960ff16336001600160a01b03167f9e0e1784e8b758f6e1d0a719c9d9e54fbb8376bc7a50b83516bd446a8e023d75848c8b8b604051610d159493929190611abf565b60405180910390a350505050505050505050565b3360009081526001602052604090205460ff16610d585760405162461bcd60e51b815260040161033f90611827565b3360008181526002602090815260408083206001600160a01b03871680855290835281842060ff871680865290845293829020805460ff19166001179055905192835292917fc2b5e6f861f43611062b511ecb54443548e07a6d51239b90892bc2a90b83339e9101610aad565b3360009081526001602052604090205460ff16610df45760405162461bcd60e51b815260040161033f90611827565b6001600160a01b03811660009081526001602052604090205460ff16610e535760405162461bcd60e51b815260206004820152601460248201527310da1a5b19081b9bdd081c9959da5cdd195c995960621b604482015260640161033f565b6001600160a01b038181166000908152600460205260409020541615610ebb5760405162461bcd60e51b815260206004820152601860248201527f4368696c6420616c72656164792068617320706172656e740000000000000000604482015260640161033f565b336001600160a01b03821603610f095760405162461bcd60e51b815260206004820152601360248201527210d85b9b9bdd081899481bdddb8818da1a5b19606a1b604482015260640161033f565b6001600160a01b03811660008181526004602090815260408083208054336001600160a01b03199182168117909255818552600384528285208054600181018255908652938520909301805490931685179092555190917f6a65ffca541ed6097e52abd980d703bf2539b597612844c1e2699d80a38a7e3d91a350565b60408051610100810182526000808252602080830182905260608385018190528084018390526080840183905260a0840183905260c0840183905260e08401526001600160a01b038616825281815283822060ff8616835290529190912080546110215760405162461bcd60e51b815260206004820152600c60248201526b4e6f20646f63756d656e747360a01b604482015260640161033f565b336001600160a01b038516148061106557506001600160a01b0384166000908152600260209081526040808320338452825280832060ff8088168552925290912054165b8061108957506001600160a01b038481166000908152600460205260409020541633145b6110c55760405162461bcd60e51b815260206004820152600d60248201526c1058d8d95cdcc819195b9a5959609a1b604482015260640161033f565b805481906110d590600190611b02565b815481106110e5576110e56119af565b906000526020600020906006020160405180610100016040529081600082015481526020016001820154815260200160028201805461112390611865565b80601f016020809104026020016040519081016040528092919081815260200182805461114f90611865565b801561119c5780601f106111715761010080835404028352916020019161119c565b820191906000526020600020905b81548152906001019060200180831161117f57829003601f168201915b5050509183525050600382015460ff81166020830152610100810467ffffffffffffffff166040830152600160481b900463ffffffff1660608201526004820154608082015260058201805460a0909201916111f790611865565b80601f016020809104026020016040519081016040528092919081815260200182805461122390611865565b80156112705780601f1061124557610100808354040283529160200191611270565b820191906000526020600020905b81548152906001019060200180831161125357829003601f168201915b50505050508152505091505092915050565b6001600160a01b03841660009081526020818152604080832060ff8716845290915281205463ffffffff8416106112bb57506000610445565b6001600160a01b03851660009081526020818152604080832060ff881684529091529020805483919063ffffffff86169081106112fa576112fa6119af565b906000526020600020906006020160000154149050949350505050565b3360009081526001602052604090205460ff161561136c5760405162461bcd60e51b8152602060048201526012602482015271105b1c9958591e481c9959da5cdd195c995960721b604482015260640161033f565b33600081815260016020818152604092839020805460ff1916909217909155905167ffffffffffffffff421681527fe60a3e37a71d811f21074034fd64f05048318f6349b1503eff836e66e4427553910160405180910390a2565b5080546113d390611865565b6000825580601f106113e3575050565b601f0160209004906000526020600020908101906114019190611404565b50565b5b808211156114195760008155600101611405565b5090565b80356001600160a01b038116811461143457600080fd5b919050565b803560ff8116811461143457600080fd5b60008083601f84011261145c57600080fd5b50813567ffffffffffffffff81111561147457600080fd5b60208301915083602082850101111561148c57600080fd5b9250929050565b600080600080606085870312156114a957600080fd5b6114b28561141d565b93506114c060208601611439565b9250604085013567ffffffffffffffff8111156114dc57600080fd5b6114e88782880161144a565b95989497509550505050565b60008060006060848603121561150957600080fd5b6115128461141d565b92506115206020850161141d565b915061152e60408501611439565b90509250925092565b803563ffffffff8116811461143457600080fd5b60008060006060848603121561156057600080fd5b6115698461141d565b925061157760208501611439565b915061152e60408501611537565b6000815180845260005b818110156115ab5760208185018101518683018201520161158f565b506000602082860101526020601f19601f83011685010191505092915050565b602081528151602082015260208201516040820152600060408301516101008060608501526115fe610120850183611585565b915060ff6060860151166080850152608085015161162860a086018267ffffffffffffffff169052565b5060a085015163ffffffff811660c08601525060c085015160e085015260e0850151601f19858403018286015261165f8382611585565b9695505050505050565b6000806040838503121561167c57600080fd5b6116858361141d565b915061169360208401611439565b90509250929050565b6020815260006116af6020830184611585565b9392505050565b600080604083850312156116c957600080fd5b6116d28361141d565b946020939093013593505050565b6000602082840312156116f257600080fd5b6116af8261141d565b6020808252825182820181905260009190848201906040850190845b8181101561173c5783516001600160a01b031683529284019291840191600101611717565b50909695505050505050565b600080600080600080600060a0888a03121561176357600080fd5b61176c88611439565b96506020880135955060408801359450606088013567ffffffffffffffff8082111561179757600080fd5b6117a38b838c0161144a565b909650945060808a01359150808211156117bc57600080fd5b506117c98a828b0161144a565b989b979a50959850939692959293505050565b600080600080608085870312156117f257600080fd5b6117fb8561141d565b935061180960208601611439565b925061181760408601611537565b9396929550929360600135925050565b6020808252600e908201526d139bdd081c9959da5cdd195c995960921b604082015260600190565b634e487b7160e01b600052604160045260246000fd5b600181811c9082168061187957607f821691505b60208210810361189957634e487b7160e01b600052602260045260246000fd5b50919050565b601f8211156118e957600081815260208120601f850160051c810160208610156118c65750805b601f850160051c820191505b818110156118e5578281556001016118d2565b5050505b505050565b67ffffffffffffffff8311156119065761190661184f565b61191a836119148354611865565b8361189f565b6000601f84116001811461194e57600085156119365750838201355b600019600387901b1c1916600186901b1783556119a8565b600083815260209020601f19861690835b8281101561197f578685013582556020948501946001909201910161195f565b508682101561199c5760001960f88860031b161c19848701351681555b505060018560011b0183555b5050505050565b634e487b7160e01b600052603260045260246000fd5b634e487b7160e01b600052601160045260246000fd5b63ffffffff8281168282160390808211156119f8576119f86119c5565b5092915050565b815167ffffffffffffffff811115611a1957611a1961184f565b611a2d81611a278454611865565b8461189f565b602080601f831160018114611a625760008415611a4a5750858301515b600019600386901b1c1916600185901b1785556118e5565b600085815260208120601f198616915b82811015611a9157888601518255948401946001909101908401611a72565b5085821015611aaf5787850151600019600388901b60f8161c191681555b5050505050600190811b01905550565b63ffffffff8516815283602082015260606040820152816060820152818360808301376000818301608090810191909152601f909201601f191601019392505050565b8181038181111561099c5761099c6119c556fea264697066735822122095cb345fa05b57fae99cacb5f75c6b7ad7324147faed0b3c453a699df9d8b40c64736f6c63430008140033","opcodes":"PUSH1 0x80 PUSH1 0x40 MSTORE CALLVALUE DUP1 ISZERO PUSH2 0x10 JUMPI PUSH1 0x0 DUP1 REVERT JUMPDEST POP PUSH2 0x1B4B DUP1 PUSH2 0x20 PUSH1 0x0 CODECOPY PUSH1 0x0 RETURN INVALID PUSH1 0x80 PUSH1 0x40 MSTORE CALLVALUE DUP1 ISZERO PUSH2 0x10 JUMPI PUSH1 0x0 DUP1 REVERT JUMPDEST POP PUSH1 0x4 CALLDATASIZE LT PUSH2 0x116 JUMPI PUSH1 0x0 CALLDATALOAD PUSH1 0xE0 SHR DUP1 PUSH4 0x7F761CFE GT PUSH2 0xA2 JUMPI DUP1 PUSH4 0xAB084FEE GT PUSH2 0x71 JUMPI DUP1 PUSH4 0xAB084FEE EQ PUSH2 0x296 JUMPI DUP1 PUSH4 0xAFE8E794 EQ PUSH2 0x2A9 JUMPI DUP1 PUSH4 0xB2DD5C07 EQ PUSH2 0x2BC JUMPI DUP1 PUSH4 0xCA9ACE4F EQ PUSH2 0x2DF JUMPI DUP1 PUSH4 0xF1F9D8C9 EQ PUSH2 0x2E7 JUMPI PUSH1 0x0 DUP1 REVERT JUMPDEST DUP1 PUSH4 0x7F761CFE EQ PUSH2 0x231 JUMPI DUP1 PUSH4 0x87ED1BD0 EQ PUSH2 0x244 JUMPI DUP1 PUSH4 0x8B687EF0 EQ PUSH2 0x257 JUMPI DUP1 PUSH4 0xA9405923 EQ PUSH2 0x26A JUMPI PUSH1 0x0 DUP1 REVERT JUMPDEST DUP1 PUSH4 0x2FF296D5 GT PUSH2 0xE9 JUMPI DUP1 PUSH4 0x2FF296D5 EQ PUSH2 0x18B JUMPI DUP1 PUSH4 0x4E94F499 EQ PUSH2 0x1AB JUMPI DUP1 PUSH4 0x67631619 EQ PUSH2 0x1D6 JUMPI DUP1 PUSH4 0x6999FA45 EQ PUSH2 0x1FE JUMPI DUP1 PUSH4 0x6F925535 EQ PUSH2 0x21E JUMPI PUSH1 0x0 DUP1 REVERT JUMPDEST DUP1 PUSH4 0xF9AE37C EQ PUSH2 0x11B JUMPI DUP1 PUSH4 0x17888263 EQ PUSH2 0x130 JUMPI DUP1 PUSH4 0x2BF28A29 EQ PUSH2 0x158 JUMPI DUP1 PUSH4 0x2CAD2AEB EQ PUSH2 0x178 JUMPI JUMPDEST PUSH1 0x0 DUP1 REVERT JUMPDEST PUSH2 0x12E PUSH2 0x129 CALLDATASIZE PUSH1 0x4 PUSH2 0x1493 JUMP JUMPDEST PUSH2 0x310 JUMP JUMPDEST STOP JUMPDEST PUSH2 0x143 PUSH2 0x13E CALLDATASIZE PUSH1 0x4 PUSH2 0x14F4 JUMP JUMPDEST PUSH2 0x3CB JUMP JUMPDEST PUSH1 0x40 MLOAD SWAP1 ISZERO ISZERO DUP2 MSTORE PUSH1 0x20 ADD JUMPDEST PUSH1 0x40 MLOAD DUP1 SWAP2 SUB SWAP1 RETURN JUMPDEST PUSH2 0x16B PUSH2 0x166 CALLDATASIZE PUSH1 0x4 PUSH2 0x154B JUMP JUMPDEST PUSH2 0x44D JUMP JUMPDEST PUSH1 0x40 MLOAD PUSH2 0x14F SWAP2 SWAP1 PUSH2 0x15CB JUMP JUMPDEST PUSH2 0x12E PUSH2 0x186 CALLDATASIZE PUSH1 0x4 PUSH2 0x1669 JUMP JUMPDEST PUSH2 0x777 JUMP JUMPDEST PUSH2 0x19E PUSH2 0x199 CALLDATASIZE PUSH1 0x4 PUSH2 0x14F4 JUMP JUMPDEST PUSH2 0x7E1 JUMP JUMPDEST PUSH1 0x40 MLOAD PUSH2 0x14F SWAP2 SWAP1 PUSH2 0x169C JUMP JUMPDEST PUSH2 0x1BE PUSH2 0x1B9 CALLDATASIZE PUSH1 0x4 PUSH2 0x16B6 JUMP JUMPDEST PUSH2 0x93E JUMP JUMPDEST PUSH1 0x40 MLOAD PUSH1 0x1 PUSH1 0x1 PUSH1 0xA0 SHL SUB SWAP1 SWAP2 AND DUP2 MSTORE PUSH1 0x20 ADD PUSH2 0x14F JUMP JUMPDEST PUSH2 0x1E9 PUSH2 0x1E4 CALLDATASIZE PUSH1 0x4 PUSH2 0x1669 JUMP JUMPDEST PUSH2 0x976 JUMP JUMPDEST PUSH1 0x40 MLOAD PUSH4 0xFFFFFFFF SWAP1 SWAP2 AND DUP2 MSTORE PUSH1 0x20 ADD PUSH2 0x14F JUMP JUMPDEST PUSH2 0x211 PUSH2 0x20C CALLDATASIZE PUSH1 0x4 PUSH2 0x16E0 JUMP JUMPDEST PUSH2 0x9A2 JUMP JUMPDEST PUSH1 0x40 MLOAD PUSH2 0x14F SWAP2 SWAP1 PUSH2 0x16FB JUMP JUMPDEST PUSH2 0x12E PUSH2 0x22C CALLDATASIZE PUSH1 0x4 PUSH2 0x1669 JUMP JUMPDEST PUSH2 0xA18 JUMP JUMPDEST PUSH2 0x12E PUSH2 0x23F CALLDATASIZE PUSH1 0x4 PUSH2 0x1748 JUMP JUMPDEST PUSH2 0xAB9 JUMP JUMPDEST PUSH2 0x12E PUSH2 0x252 CALLDATASIZE PUSH1 0x4 PUSH2 0x1669 JUMP JUMPDEST PUSH2 0xD29 JUMP JUMPDEST PUSH2 0x12E PUSH2 0x265 CALLDATASIZE PUSH1 0x4 PUSH2 0x16E0 JUMP JUMPDEST PUSH2 0xDC5 JUMP JUMPDEST PUSH2 0x1BE PUSH2 0x278 CALLDATASIZE PUSH1 0x4 PUSH2 0x16E0 JUMP JUMPDEST PUSH1 0x1 PUSH1 0x1 PUSH1 0xA0 SHL SUB SWAP1 DUP2 AND PUSH1 0x0 SWAP1 DUP2 MSTORE PUSH1 0x4 PUSH1 0x20 MSTORE PUSH1 0x40 SWAP1 KECCAK256 SLOAD AND SWAP1 JUMP JUMPDEST PUSH2 0x16B PUSH2 0x2A4 CALLDATASIZE PUSH1 0x4 PUSH2 0x1669 JUMP JUMPDEST PUSH2 0xF86 JUMP JUMPDEST PUSH2 0x143 PUSH2 0x2B7 CALLDATASIZE PUSH1 0x4 PUSH2 0x17DC JUMP JUMPDEST PUSH2 0x1282 JUMP JUMPDEST PUSH2 0x143 PUSH2 0x2CA CALLDATASIZE PUSH1 0x4 PUSH2 0x16E0 JUMP JUMPDEST PUSH1 0x1 PUSH1 0x20 MSTORE PUSH1 0x0 SWAP1 DUP2 MSTORE PUSH1 0x40 SWAP1 KECCAK256 SLOAD PUSH1 0xFF AND DUP2 JUMP JUMPDEST PUSH2 0x12E PUSH2 0x1317 JUMP JUMPDEST PUSH2 0x1BE PUSH2 0x2F5 CALLDATASIZE PUSH1 0x4 PUSH2 0x16E0 JUMP JUMPDEST PUSH1 0x4 PUSH1 0x20 MSTORE PUSH1 0x0 SWAP1 DUP2 MSTORE PUSH1 0x40 SWAP1 KECCAK256 SLOAD PUSH1 0x1 PUSH1 0x1 PUSH1 0xA0 SHL SUB AND DUP2 JUMP JUMPDEST CALLER PUSH1 0x0 SWAP1 DUP2 MSTORE PUSH1 0x1 PUSH1 0x20 MSTORE PUSH1 0x40 SWAP1 KECCAK256 SLOAD PUSH1 0xFF AND PUSH2 0x348 JUMPI PUSH1 0x40 MLOAD PUSH3 0x461BCD PUSH1 0xE5 SHL DUP2 MSTORE PUSH1 0x4 ADD PUSH2 0x33F SWAP1 PUSH2 0x1827 JUMP JUMPDEST PUSH1 0x40 MLOAD DUP1 SWAP2 SUB SWAP1 REVERT JUMPDEST CALLER PUSH1 0x0 SWAP1 DUP2 MSTORE PUSH1 0x5 PUSH1 0x20 SWAP1 DUP2 MSTORE PUSH1 0x40 DUP1 DUP4 KECCAK256 PUSH1 0x1 PUSH1 0x1 PUSH1 0xA0 SHL SUB DUP9 AND DUP5 MSTORE DUP3 MSTORE DUP1 DUP4 KECCAK256 PUSH1 0xFF DUP8 AND DUP5 MSTORE SWAP1 SWAP2 MSTORE SWAP1 KECCAK256 PUSH2 0x381 DUP3 DUP5 DUP4 PUSH2 0x18EE JUMP JUMPDEST POP PUSH1 0x40 MLOAD PUSH1 0xFF DUP5 AND DUP2 MSTORE PUSH1 0x1 PUSH1 0x1 PUSH1 0xA0 SHL SUB DUP6 AND SWAP1 CALLER SWAP1 PUSH32 0xEEBAD4C64F67436E65F09510C1605F415A81CD2218D191EAD7ECE46B523A5800 SWAP1 PUSH1 0x20 ADD PUSH1 0x40 MLOAD DUP1 SWAP2 SUB SWAP1 LOG3 POP POP POP POP JUMP JUMPDEST PUSH1 0x0 DUP3 PUSH1 0x1 PUSH1 0x1 PUSH1 0xA0 SHL SUB AND DUP5 PUSH1 0x1 PUSH1 0x1 PUSH1 0xA0 SHL SUB AND EQ DUP1 PUSH2 0x41E JUMPI POP PUSH1 0x1 PUSH1 0x1 PUSH1 0xA0 SHL SUB DUP1 DUP6 AND PUSH1 0x0 SWAP1 DUP2 MSTORE PUSH1 0x2 PUSH1 0x20 SWAP1 DUP2 MSTORE PUSH1 0x40 DUP1 DUP4 KECCAK256 SWAP4 DUP8 AND DUP4 MSTORE SWAP3 DUP2 MSTORE DUP3 DUP3 KECCAK256 PUSH1 0xFF DUP1 DUP8 AND DUP5 MSTORE SWAP2 MSTORE SWAP2 SWAP1 KECCAK256 SLOAD AND JUMPDEST DUP1 PUSH2 0x445 JUMPI POP PUSH1 0x1 PUSH1 0x1 PUSH1 0xA0 SHL SUB DUP5 DUP2 AND PUSH1 0x0 SWAP1 DUP2 MSTORE PUSH1 0x4 PUSH1 0x20 MSTORE PUSH1 0x40 SWAP1 KECCAK256 SLOAD DUP2 AND SWAP1 DUP5 AND EQ JUMPDEST SWAP5 SWAP4 POP POP POP POP JUMP JUMPDEST PUSH1 0x40 DUP1 MLOAD PUSH2 0x100 DUP2 ADD DUP3 MSTORE PUSH1 0x0 DUP1 DUP3 MSTORE PUSH1 0x20 DUP3 ADD DUP2 SWAP1 MSTORE PUSH1 0x60 SWAP3 DUP3 ADD DUP4 SWAP1 MSTORE DUP3 DUP3 ADD DUP2 SWAP1 MSTORE PUSH1 0x80 DUP3 ADD DUP2 SWAP1 MSTORE PUSH1 0xA0 DUP3 ADD DUP2 SWAP1 MSTORE PUSH1 0xC0 DUP3 ADD MSTORE PUSH1 0xE0 DUP2 ADD SWAP2 SWAP1 SWAP2 MSTORE CALLER PUSH1 0x1 PUSH1 0x1 PUSH1 0xA0 SHL SUB DUP6 AND EQ DUP1 PUSH2 0x4D1 JUMPI POP PUSH1 0x1 PUSH1 0x1 PUSH1 0xA0 SHL SUB DUP5 AND PUSH1 0x0 SWAP1 DUP2 MSTORE PUSH1 0x2 PUSH1 0x20 SWAP1 DUP2 MSTORE PUSH1 0x40 DUP1 DUP4 KECCAK256 CALLER DUP5 MSTORE DUP3 MSTORE DUP1 DUP4 KECCAK256 PUSH1 0xFF DUP1 DUP9 AND DUP6 MSTORE SWAP3 MSTORE SWAP1 SWAP2 KECCAK256 SLOAD AND JUMPDEST DUP1 PUSH2 0x4F5 JUMPI POP PUSH1 0x1 PUSH1 0x1 PUSH1 0xA0 SHL SUB DUP5 DUP2 AND PUSH1 0x0 SWAP1 DUP2 MSTORE PUSH1 0x4 PUSH1 0x20 MSTORE PUSH1 0x40 SWAP1 KECCAK256 SLOAD AND CALLER EQ JUMPDEST PUSH2 0x531 JUMPI PUSH1 0x40 MLOAD PUSH3 0x461BCD PUSH1 0xE5 SHL DUP2 MSTORE PUSH1 0x20 PUSH1 0x4 DUP3 ADD MSTORE PUSH1 0xD PUSH1 0x24 DUP3 ADD MSTORE PUSH13 0x1058D8D95CDCC819195B9A5959 PUSH1 0x9A SHL PUSH1 0x44 DUP3 ADD MSTORE PUSH1 0x64 ADD PUSH2 0x33F JUMP JUMPDEST PUSH1 0x1 PUSH1 0x1 PUSH1 0xA0 SHL SUB DUP5 AND PUSH1 0x0 SWAP1 DUP2 MSTORE PUSH1 0x20 DUP2 DUP2 MSTORE PUSH1 0x40 DUP1 DUP4 KECCAK256 PUSH1 0xFF DUP8 AND DUP5 MSTORE SWAP1 SWAP2 MSTORE SWAP1 KECCAK256 SLOAD PUSH4 0xFFFFFFFF DUP4 AND LT PUSH2 0x59E JUMPI PUSH1 0x40 MLOAD PUSH3 0x461BCD PUSH1 0xE5 SHL DUP2 MSTORE PUSH1 0x20 PUSH1 0x4 DUP3 ADD MSTORE PUSH1 0x11 PUSH1 0x24 DUP3 ADD MSTORE PUSH17 0x15995C9CDA5BDB881B9BDD08199BDD5B99 PUSH1 0x7A SHL PUSH1 0x44 DUP3 ADD MSTORE PUSH1 0x64 ADD PUSH2 0x33F JUMP JUMPDEST PUSH1 0x1 PUSH1 0x1 PUSH1 0xA0 SHL SUB DUP5 AND PUSH1 0x0 SWAP1 DUP2 MSTORE PUSH1 0x20 DUP2 DUP2 MSTORE PUSH1 0x40 DUP1 DUP4 KECCAK256 PUSH1 0xFF DUP8 AND DUP5 MSTORE SWAP1 SWAP2 MSTORE SWAP1 KECCAK256 DUP1 SLOAD PUSH4 0xFFFFFFFF DUP5 AND SWAP1 DUP2 LT PUSH2 0x5DA JUMPI PUSH2 0x5DA PUSH2 0x19AF JUMP JUMPDEST SWAP1 PUSH1 0x0 MSTORE PUSH1 0x20 PUSH1 0x0 KECCAK256 SWAP1 PUSH1 0x6 MUL ADD PUSH1 0x40 MLOAD DUP1 PUSH2 0x100 ADD PUSH1 0x40 MSTORE SWAP1 DUP2 PUSH1 0x0 DUP3 ADD SLOAD DUP2 MSTORE PUSH1 0x20 ADD PUSH1 0x1 DUP3 ADD SLOAD DUP2 MSTORE PUSH1 0x20 ADD PUSH1 0x2 DUP3 ADD DUP1 SLOAD PUSH2 0x618 SWAP1 PUSH2 0x1865 JUMP JUMPDEST DUP1 PUSH1 0x1F ADD PUSH1 0x20 DUP1 SWAP2 DIV MUL PUSH1 0x20 ADD PUSH1 0x40 MLOAD SWAP1 DUP2 ADD PUSH1 0x40 MSTORE DUP1 SWAP3 SWAP2 SWAP1 DUP2 DUP2 MSTORE PUSH1 0x20 ADD DUP3 DUP1 SLOAD PUSH2 0x644 SWAP1 PUSH2 0x1865 JUMP JUMPDEST DUP1 ISZERO PUSH2 0x691 JUMPI DUP1 PUSH1 0x1F LT PUSH2 0x666 JUMPI PUSH2 0x100 DUP1 DUP4 SLOAD DIV MUL DUP4 MSTORE SWAP2 PUSH1 0x20 ADD SWAP2 PUSH2 0x691 JUMP JUMPDEST DUP3 ADD SWAP2 SWAP1 PUSH1 0x0 MSTORE PUSH1 0x20 PUSH1 0x0 KECCAK256 SWAP1 JUMPDEST DUP2 SLOAD DUP2 MSTORE SWAP1 PUSH1 0x1 ADD SWAP1 PUSH1 0x20 ADD DUP1 DUP4 GT PUSH2 0x674 JUMPI DUP3 SWAP1 SUB PUSH1 0x1F AND DUP3 ADD SWAP2 JUMPDEST POP POP POP SWAP2 DUP4 MSTORE POP POP PUSH1 0x3 DUP3 ADD SLOAD PUSH1 0xFF DUP2 AND PUSH1 0x20 DUP4 ADD MSTORE PUSH2 0x100 DUP2 DIV PUSH8 0xFFFFFFFFFFFFFFFF AND PUSH1 0x40 DUP4 ADD MSTORE PUSH1 0x1 PUSH1 0x48 SHL SWAP1 DIV PUSH4 0xFFFFFFFF AND PUSH1 0x60 DUP3 ADD MSTORE PUSH1 0x4 DUP3 ADD SLOAD PUSH1 0x80 DUP3 ADD MSTORE PUSH1 0x5 DUP3 ADD DUP1 SLOAD PUSH1 0xA0 SWAP1 SWAP3 ADD SWAP2 PUSH2 0x6EC SWAP1 PUSH2 0x1865 JUMP JUMPDEST DUP1 PUSH1 0x1F ADD PUSH1 0x20 DUP1 SWAP2 DIV MUL PUSH1 0x20 ADD PUSH1 0x40 MLOAD SWAP1 DUP2 ADD PUSH1 0x40 MSTORE DUP1 SWAP3 SWAP2 SWAP1 DUP2 DUP2 MSTORE PUSH1 0x20 ADD DUP3 DUP1 SLOAD PUSH2 0x718 SWAP1 PUSH2 0x1865 JUMP JUMPDEST DUP1 ISZERO PUSH2 0x765 JUMPI DUP1 PUSH1 0x1F LT PUSH2 0x73A JUMPI PUSH2 0x100 DUP1 DUP4 SLOAD DIV MUL DUP4 MSTORE SWAP2 PUSH1 0x20 ADD SWAP2 PUSH2 0x765 JUMP JUMPDEST DUP3 ADD SWAP2 SWAP1 PUSH1 0x0 MSTORE PUSH1 0x20 PUSH1 0x0 KECCAK256 SWAP1 JUMPDEST DUP2 SLOAD DUP2 MSTORE SWAP1 PUSH1 0x1 ADD SWAP1 PUSH1 0x20 ADD DUP1 DUP4 GT PUSH2 0x748 JUMPI DUP3 SWAP1 SUB PUSH1 0x1F AND DUP3 ADD SWAP2 JUMPDEST POP POP POP POP POP DUP2 MSTORE POP POP SWAP1 POP SWAP4 SWAP3 POP POP POP JUMP JUMPDEST CALLER PUSH1 0x0 SWAP1 DUP2 MSTORE PUSH1 0x1 PUSH1 0x20 MSTORE PUSH1 0x40 SWAP1 KECCAK256 SLOAD PUSH1 0xFF AND PUSH2 0x7A6 JUMPI PUSH1 0x40 MLOAD PUSH3 0x461BCD PUSH1 0xE5 SHL DUP2 MSTORE PUSH1 0x4 ADD PUSH2 0x33F SWAP1 PUSH2 0x1827 JUMP JUMPDEST CALLER PUSH1 0x0 SWAP1 DUP2 MSTORE PUSH1 0x5 PUSH1 0x20 SWAP1 DUP2 MSTORE PUSH1 0x40 DUP1 DUP4 KECCAK256 PUSH1 0x1 PUSH1 0x1 PUSH1 0xA0 SHL SUB DUP7 AND DUP5 MSTORE DUP3 MSTORE DUP1 DUP4 KECCAK256 PUSH1 0xFF DUP6 AND DUP5 MSTORE SWAP1 SWAP2 MSTORE DUP2 KECCAK256 PUSH2 0x7DD SWAP2 PUSH2 0x13C7 JUMP JUMPDEST POP POP JUMP JUMPDEST PUSH1 0x60 CALLER PUSH1 0x1 PUSH1 0x1 PUSH1 0xA0 SHL SUB DUP6 AND EQ DUP1 PUSH2 0x802 JUMPI POP CALLER PUSH1 0x1 PUSH1 0x1 PUSH1 0xA0 SHL SUB DUP5 AND EQ JUMPDEST DUP1 PUSH2 0x826 JUMPI POP PUSH1 0x1 PUSH1 0x1 PUSH1 0xA0 SHL SUB DUP5 DUP2 AND PUSH1 0x0 SWAP1 DUP2 MSTORE PUSH1 0x4 PUSH1 0x20 MSTORE PUSH1 0x40 SWAP1 KECCAK256 SLOAD AND CALLER EQ JUMPDEST PUSH2 0x87C JUMPI PUSH1 0x40 MLOAD PUSH3 0x461BCD PUSH1 0xE5 SHL DUP2 MSTORE PUSH1 0x20 PUSH1 0x4 DUP3 ADD MSTORE PUSH1 0x21 PUSH1 0x24 DUP3 ADD MSTORE PUSH32 0x4E6F7420617574686F72697A656420746F207265616420616363657373206B65 PUSH1 0x44 DUP3 ADD MSTORE PUSH1 0x79 PUSH1 0xF8 SHL PUSH1 0x64 DUP3 ADD MSTORE PUSH1 0x84 ADD PUSH2 0x33F JUMP JUMPDEST PUSH1 0x1 PUSH1 0x1 PUSH1 0xA0 SHL SUB DUP1 DUP6 AND PUSH1 0x0 SWAP1 DUP2 MSTORE PUSH1 0x5 PUSH1 0x20 SWAP1 DUP2 MSTORE PUSH1 0x40 DUP1 DUP4 KECCAK256 SWAP4 DUP8 AND DUP4 MSTORE SWAP3 DUP2 MSTORE DUP3 DUP3 KECCAK256 PUSH1 0xFF DUP7 AND DUP4 MSTORE SWAP1 MSTORE KECCAK256 DUP1 SLOAD PUSH2 0x8B7 SWAP1 PUSH2 0x1865 JUMP JUMPDEST DUP1 PUSH1 0x1F ADD PUSH1 0x20 DUP1 SWAP2 DIV MUL PUSH1 0x20 ADD PUSH1 0x40 MLOAD SWAP1 DUP2 ADD PUSH1 0x40 MSTORE DUP1 SWAP3 SWAP2 SWAP1 DUP2 DUP2 MSTORE PUSH1 0x20 ADD DUP3 DUP1 SLOAD PUSH2 0x8E3 SWAP1 PUSH2 0x1865 JUMP JUMPDEST DUP1 ISZERO PUSH2 0x930 JUMPI DUP1 PUSH1 0x1F LT PUSH2 0x905 JUMPI PUSH2 0x100 DUP1 DUP4 SLOAD DIV MUL DUP4 MSTORE SWAP2 PUSH1 0x20 ADD SWAP2 PUSH2 0x930 JUMP JUMPDEST DUP3 ADD SWAP2 SWAP1 PUSH1 0x0 MSTORE PUSH1 0x20 PUSH1 0x0 KECCAK256 SWAP1 JUMPDEST DUP2 SLOAD DUP2 MSTORE SWAP1 PUSH1 0x1 ADD SWAP1 PUSH1 0x20 ADD DUP1 DUP4 GT PUSH2 0x913 JUMPI DUP3 SWAP1 SUB PUSH1 0x1F AND DUP3 ADD SWAP2 JUMPDEST POP POP POP POP POP SWAP1 POP SWAP4 SWAP3 POP POP POP JUMP JUMPDEST PUSH1 0x3 PUSH1 0x20 MSTORE DUP2 PUSH1 0x0 MSTORE PUSH1 0x40 PUSH1 0x0 KECCAK256 DUP2 DUP2 SLOAD DUP2 LT PUSH2 0x95A JUMPI PUSH1 0x0 DUP1 REVERT JUMPDEST PUSH1 0x0 SWAP2 DUP3 MSTORE PUSH1 0x20 SWAP1 SWAP2 KECCAK256 ADD SLOAD PUSH1 0x1 PUSH1 0x1 PUSH1 0xA0 SHL SUB AND SWAP2 POP DUP3 SWAP1 POP JUMP JUMPDEST PUSH1 0x1 PUSH1 0x1 PUSH1 0xA0 SHL SUB DUP3 AND PUSH1 0x0 SWAP1 DUP2 MSTORE PUSH1 0x20 DUP2 DUP2 MSTORE PUSH1 0x40 DUP1 DUP4 KECCAK256 PUSH1 0xFF DUP6 AND DUP5 MSTORE SWAP1 SWAP2 MSTORE SWAP1 KECCAK256 SLOAD JUMPDEST SWAP3 SWAP2 POP POP JUMP JUMPDEST PUSH1 0x1 PUSH1 0x1 PUSH1 0xA0 SHL SUB DUP2 AND PUSH1 0x0 SWAP1 DUP2 MSTORE PUSH1 0x3 PUSH1 0x20 SWAP1 DUP2 MSTORE PUSH1 0x40 SWAP2 DUP3 SWAP1 KECCAK256 DUP1 SLOAD DUP4 MLOAD DUP2 DUP5 MUL DUP2 ADD DUP5 ADD SWAP1 SWAP5 MSTORE DUP1 DUP5 MSTORE PUSH1 0x60 SWAP4 SWAP3 DUP4 ADD DUP3 DUP3 DUP1 ISZERO PUSH2 0xA0C JUMPI PUSH1 0x20 MUL DUP3 ADD SWAP2 SWAP1 PUSH1 0x0 MSTORE PUSH1 0x20 PUSH1 0x0 KECCAK256 SWAP1 JUMPDEST DUP2 SLOAD PUSH1 0x1 PUSH1 0x1 PUSH1 0xA0 SHL SUB AND DUP2 MSTORE PUSH1 0x1 SWAP1 SWAP2 ADD SWAP1 PUSH1 0x20 ADD DUP1 DUP4 GT PUSH2 0x9EE JUMPI JUMPDEST POP POP POP POP POP SWAP1 POP SWAP2 SWAP1 POP JUMP JUMPDEST CALLER PUSH1 0x0 SWAP1 DUP2 MSTORE PUSH1 0x1 PUSH1 0x20 MSTORE PUSH1 0x40 SWAP1 KECCAK256 SLOAD PUSH1 0xFF AND PUSH2 0xA47 JUMPI PUSH1 0x40 MLOAD PUSH3 0x461BCD PUSH1 0xE5 SHL DUP2 MSTORE PUSH1 0x4 ADD PUSH2 0x33F SWAP1 PUSH2 0x1827 JUMP JUMPDEST CALLER PUSH1 0x0 DUP2 DUP2 MSTORE PUSH1 0x2 PUSH1 0x20 SWAP1 DUP2 MSTORE PUSH1 0x40 DUP1 DUP4 KECCAK256 PUSH1 0x1 PUSH1 0x1 PUSH1 0xA0 SHL SUB DUP8 AND DUP1 DUP6 MSTORE SWAP1 DUP4 MSTORE DUP2 DUP5 KECCAK256 PUSH1 0xFF DUP8 AND DUP1 DUP7 MSTORE SWAP1 DUP5 MSTORE SWAP4 DUP3 SWAP1 KECCAK256 DUP1 SLOAD PUSH1 0xFF NOT AND SWAP1 SSTORE SWAP1 MLOAD SWAP3 DUP4 MSTORE SWAP3 SWAP2 PUSH32 0x349FDAC62E52DC85B55B8F76B0F91F1FEF9CA6D4B07755AC804D7C97DA1B1989 SWAP2 ADD JUMPDEST PUSH1 0x40 MLOAD DUP1 SWAP2 SUB SWAP1 LOG3 POP POP JUMP JUMPDEST CALLER PUSH1 0x0 SWAP1 DUP2 MSTORE PUSH1 0x1 PUSH1 0x20 MSTORE PUSH1 0x40 SWAP1 KECCAK256 SLOAD PUSH1 0xFF AND PUSH2 0xAE8 JUMPI PUSH1 0x40 MLOAD PUSH3 0x461BCD PUSH1 0xE5 SHL DUP2 MSTORE PUSH1 0x4 ADD PUSH2 0x33F SWAP1 PUSH2 0x1827 JUMP JUMPDEST CALLER PUSH1 0x0 SWAP1 DUP2 MSTORE PUSH1 0x20 DUP2 DUP2 MSTORE PUSH1 0x40 DUP1 DUP4 KECCAK256 PUSH1 0xFF DUP12 AND DUP5 MSTORE SWAP1 SWAP2 MSTORE DUP2 KECCAK256 DUP1 SLOAD SWAP1 SWAP2 PUSH4 0xFFFFFFFF DUP3 AND PUSH2 0xB19 JUMPI PUSH1 0x0 PUSH2 0xB4E JUMP JUMPDEST DUP3 PUSH2 0xB25 PUSH1 0x1 DUP5 PUSH2 0x19DB JUMP JUMPDEST PUSH4 0xFFFFFFFF AND DUP2 SLOAD DUP2 LT PUSH2 0xB3B JUMPI PUSH2 0xB3B PUSH2 0x19AF JUMP JUMPDEST SWAP1 PUSH1 0x0 MSTORE PUSH1 0x20 PUSH1 0x0 KECCAK256 SWAP1 PUSH1 0x6 MUL ADD PUSH1 0x0 ADD SLOAD JUMPDEST SWAP1 POP DUP3 PUSH1 0x40 MLOAD DUP1 PUSH2 0x100 ADD PUSH1 0x40 MSTORE DUP1 DUP12 DUP2 MSTORE PUSH1 0x20 ADD DUP11 DUP2 MSTORE PUSH1 0x20 ADD DUP10 DUP10 DUP1 DUP1 PUSH1 0x1F ADD PUSH1 0x20 DUP1 SWAP2 DIV MUL PUSH1 0x20 ADD PUSH1 0x40 MLOAD SWAP1 DUP2 ADD PUSH1 0x40 MSTORE DUP1 SWAP4 SWAP3 SWAP2 SWAP1 DUP2 DUP2 MSTORE PUSH1 0x20 ADD DUP4 DUP4 DUP1 DUP3 DUP5 CALLDATACOPY PUSH1 0x0 SWAP3 ADD SWAP2 SWAP1 SWAP2 MSTORE POP POP POP SWAP1 DUP3 MSTORE POP PUSH1 0xFF DUP14 AND PUSH1 0x20 DUP1 DUP4 ADD SWAP2 SWAP1 SWAP2 MSTORE PUSH8 0xFFFFFFFFFFFFFFFF TIMESTAMP AND PUSH1 0x40 DUP1 DUP5 ADD SWAP2 SWAP1 SWAP2 MSTORE PUSH4 0xFFFFFFFF DUP8 AND PUSH1 0x60 DUP5 ADD MSTORE PUSH1 0x80 DUP4 ADD DUP7 SWAP1 MSTORE DUP1 MLOAD PUSH1 0x1F DUP11 ADD DUP4 SWAP1 DIV DUP4 MUL DUP2 ADD DUP4 ADD SWAP1 SWAP2 MSTORE DUP9 DUP2 MSTORE PUSH1 0xA0 SWAP1 SWAP3 ADD SWAP2 SWAP1 DUP10 SWAP1 DUP10 SWAP1 DUP2 SWAP1 DUP5 ADD DUP4 DUP3 DUP1 DUP3 DUP5 CALLDATACOPY PUSH1 0x0 SWAP3 ADD DUP3 SWAP1 MSTORE POP SWAP4 SWAP1 SWAP5 MSTORE POP POP DUP4 SLOAD PUSH1 0x1 DUP2 DUP2 ADD DUP7 SSTORE SWAP5 DUP3 MSTORE PUSH1 0x20 SWAP2 DUP3 SWAP1 KECCAK256 DUP5 MLOAD PUSH1 0x6 SWAP1 SWAP3 MUL ADD SWAP1 DUP2 SSTORE SWAP1 DUP4 ADD MLOAD SWAP4 DUP2 ADD SWAP4 SWAP1 SWAP4 SSTORE POP PUSH1 0x40 DUP2 ADD MLOAD SWAP1 SWAP2 SWAP1 PUSH1 0x2 DUP3 ADD SWAP1 PUSH2 0xC4E SWAP1 DUP3 PUSH2 0x19FF JUMP JUMPDEST POP PUSH1 0x60 DUP3 ADD MLOAD PUSH1 0x3 DUP3 ADD DUP1 SLOAD PUSH1 0x80 DUP6 ADD MLOAD PUSH1 0xA0 DUP7 ADD MLOAD PUSH4 0xFFFFFFFF AND PUSH1 0x1 PUSH1 0x48 SHL MUL PUSH13 0xFFFFFFFF000000000000000000 NOT PUSH8 0xFFFFFFFFFFFFFFFF SWAP1 SWAP3 AND PUSH2 0x100 MUL PUSH9 0xFFFFFFFFFFFFFFFFFF NOT SWAP1 SWAP4 AND PUSH1 0xFF SWAP1 SWAP6 AND SWAP5 SWAP1 SWAP5 OR SWAP2 SWAP1 SWAP2 OR AND SWAP2 SWAP1 SWAP2 OR SWAP1 SSTORE PUSH1 0xC0 DUP3 ADD MLOAD PUSH1 0x4 DUP3 ADD SSTORE PUSH1 0xE0 DUP3 ADD MLOAD PUSH1 0x5 DUP3 ADD SWAP1 PUSH2 0xCCF SWAP1 DUP3 PUSH2 0x19FF JUMP JUMPDEST POP POP POP DUP10 PUSH1 0xFF AND CALLER PUSH1 0x1 PUSH1 0x1 PUSH1 0xA0 SHL SUB AND PUSH32 0x9E0E1784E8B758F6E1D0A719C9D9E54FBB8376BC7A50B83516BD446A8E023D75 DUP5 DUP13 DUP12 DUP12 PUSH1 0x40 MLOAD PUSH2 0xD15 SWAP5 SWAP4 SWAP3 SWAP2 SWAP1 PUSH2 0x1ABF JUMP JUMPDEST PUSH1 0x40 MLOAD DUP1 SWAP2 SUB SWAP1 LOG3 POP POP POP POP POP POP POP POP POP POP JUMP JUMPDEST CALLER PUSH1 0x0 SWAP1 DUP2 MSTORE PUSH1 0x1 PUSH1 0x20 MSTORE PUSH1 0x40 SWAP1 KECCAK256 SLOAD PUSH1 0xFF AND PUSH2 0xD58 JUMPI PUSH1 0x40 MLOAD PUSH3 0x461BCD PUSH1 0xE5 SHL DUP2 MSTORE PUSH1 0x4 ADD PUSH2 0x33F SWAP1 PUSH2 0x1827 JUMP JUMPDEST CALLER PUSH1 0x0 DUP2 DUP2 MSTORE PUSH1 0x2 PUSH1 0x20 SWAP1 DUP2 MSTORE PUSH1 0x40 DUP1 DUP4 KECCAK256 PUSH1 0x1 PUSH1 0x1 PUSH1 0xA0 SHL SUB DUP8 AND DUP1 DUP6 MSTORE SWAP1 DUP4 MSTORE DUP2 DUP5 KECCAK256 PUSH1 0xFF DUP8 AND DUP1 DUP7 MSTORE SWAP1 DUP5 MSTORE SWAP4 DUP3 SWAP1 KECCAK256 DUP1 SLOAD PUSH1 0xFF NOT AND PUSH1 0x1 OR SWAP1 SSTORE SWAP1 MLOAD SWAP3 DUP4 MSTORE SWAP3 SWAP2 PUSH32 0xC2B5E6F861F43611062B511ECB54443548E07A6D51239B90892BC2A90B83339E SWAP2 ADD PUSH2 0xAAD JUMP JUMPDEST CALLER PUSH1 0x0 SWAP1 DUP2 MSTORE PUSH1 0x1 PUSH1 0x20 MSTORE PUSH1 0x40 SWAP1 KECCAK256 SLOAD PUSH1 0xFF AND PUSH2 0xDF4 JUMPI PUSH1 0x40 MLOAD PUSH3 0x461BCD PUSH1 0xE5 SHL DUP2 MSTORE PUSH1 0x4 ADD PUSH2 0x33F SWAP1 PUSH2 0x1827 JUMP JUMPDEST PUSH1 0x1 PUSH1 0x1 PUSH1 0xA0 SHL SUB DUP2 AND PUSH1 0x0 SWAP1 DUP2 MSTORE PUSH1 0x1 PUSH1 0x20 MSTORE PUSH1 0x40 SWAP1 KECCAK256 SLOAD PUSH1 0xFF AND PUSH2 0xE53 JUMPI PUSH1 0x40 MLOAD PUSH3 0x461BCD PUSH1 0xE5 SHL DUP2 MSTORE PUSH1 0x20 PUSH1 0x4 DUP3 ADD MSTORE PUSH1 0x14 PUSH1 0x24 DUP3 ADD MSTORE PUSH20 0x10DA1A5B19081B9BDD081C9959DA5CDD195C9959 PUSH1 0x62 SHL PUSH1 0x44 DUP3 ADD MSTORE PUSH1 0x64 ADD PUSH2 0x33F JUMP JUMPDEST PUSH1 0x1 PUSH1 0x1 PUSH1 0xA0 SHL SUB DUP2 DUP2 AND PUSH1 0x0 SWAP1 DUP2 MSTORE PUSH1 0x4 PUSH1 0x20 MSTORE PUSH1 0x40 SWAP1 KECCAK256 SLOAD AND ISZERO PUSH2 0xEBB JUMPI PUSH1 0x40 MLOAD PUSH3 0x461BCD PUSH1 0xE5 SHL DUP2 MSTORE PUSH1 0x20 PUSH1 0x4 DUP3 ADD MSTORE PUSH1 0x18 PUSH1 0x24 DUP3 ADD MSTORE PUSH32 0x4368696C6420616C72656164792068617320706172656E740000000000000000 PUSH1 0x44 DUP3 ADD MSTORE PUSH1 0x64 ADD PUSH2 0x33F JUMP JUMPDEST CALLER PUSH1 0x1 PUSH1 0x1 PUSH1 0xA0 SHL SUB DUP3 AND SUB PUSH2 0xF09 JUMPI PUSH1 0x40 MLOAD PUSH3 0x461BCD PUSH1 0xE5 SHL DUP2 MSTORE PUSH1 0x20 PUSH1 0x4 DUP3 ADD MSTORE PUSH1 0x13 PUSH1 0x24 DUP3 ADD MSTORE PUSH19 0x10D85B9B9BDD081899481BDDDB8818DA1A5B19 PUSH1 0x6A SHL PUSH1 0x44 DUP3 ADD MSTORE PUSH1 0x64 ADD PUSH2 0x33F JUMP JUMPDEST PUSH1 0x1 PUSH1 0x1 PUSH1 0xA0 SHL SUB DUP2 AND PUSH1 0x0 DUP2 DUP2 MSTORE PUSH1 0x4 PUSH1 0x20 SWAP1 DUP2 MSTORE PUSH1 0x40 DUP1 DUP4 KECCAK256 DUP1 SLOAD CALLER PUSH1 0x1 PUSH1 0x1 PUSH1 0xA0 SHL SUB NOT SWAP2 DUP3 AND DUP2 OR SWAP1 SWAP3 SSTORE DUP2 DUP6 MSTORE PUSH1 0x3 DUP5 MSTORE DUP3 DUP6 KECCAK256 DUP1 SLOAD PUSH1 0x1 DUP2 ADD DUP3 SSTORE SWAP1 DUP7 MSTORE SWAP4 DUP6 KECCAK256 SWAP1 SWAP4 ADD DUP1 SLOAD SWAP1 SWAP4 AND DUP6 OR SWAP1 SWAP3 SSTORE MLOAD SWAP1 SWAP2 PUSH32 0x6A65FFCA541ED6097E52ABD980D703BF2539B597612844C1E2699D80A38A7E3D SWAP2 LOG3 POP JUMP JUMPDEST PUSH1 0x40 DUP1 MLOAD PUSH2 0x100 DUP2 ADD DUP3 MSTORE PUSH1 0x0 DUP1 DUP3 MSTORE PUSH1 0x20 DUP1 DUP4 ADD DUP3 SWAP1 MSTORE PUSH1 0x60 DUP4 DUP6 ADD DUP2 SWAP1 MSTORE DUP1 DUP5 ADD DUP4 SWAP1 MSTORE PUSH1 0x80 DUP5 ADD DUP4 SWAP1 MSTORE PUSH1 0xA0 DUP5 ADD DUP4 SWAP1 MSTORE PUSH1 0xC0 DUP5 ADD DUP4 SWAP1 MSTORE PUSH1 0xE0 DUP5 ADD MSTORE PUSH1 0x1 PUSH1 0x1 PUSH1 0xA0 SHL SUB DUP7 AND DUP3 MSTORE DUP2 DUP2 MSTORE DUP4 DUP3 KECCAK256 PUSH1 0xFF DUP7 AND DUP4 MSTORE SWAP1 MSTORE SWAP2 SWAP1 SWAP2 KECCAK256 DUP1 SLOAD PUSH2 0x1021 JUMPI PUSH1 0x40 MLOAD PUSH3 0x461BCD PUSH1 0xE5 SHL DUP2 MSTORE PUSH1 0x20 PUSH1 0x4 DUP3 ADD MSTORE PUSH1 0xC PUSH1 0x24 DUP3 ADD MSTORE PUSH12 0x4E6F20646F63756D656E7473 PUSH1 0xA0 SHL PUSH1 0x44 DUP3 ADD MSTORE PUSH1 0x64 ADD PUSH2 0x33F JUMP JUMPDEST CALLER PUSH1 0x1 PUSH1 0x1 PUSH1 0xA0 SHL SUB DUP6 AND EQ DUP1 PUSH2 0x1065 JUMPI POP PUSH1 0x1 PUSH1 0x1 PUSH1 0xA0 SHL SUB DUP5 AND PUSH1 0x0 SWAP1 DUP2 MSTORE PUSH1 0x2 PUSH1 0x20 SWAP1 DUP2 MSTORE PUSH1 0x40 DUP1 DUP4 KECCAK256 CALLER DUP5 MSTORE DUP3 MSTORE DUP1 DUP4 KECCAK256 PUSH1 0xFF DUP1 DUP9 AND DUP6 MSTORE SWAP3 MSTORE SWAP1 SWAP2 KECCAK256 SLOAD AND JUMPDEST DUP1 PUSH2 0x1089 JUMPI POP PUSH1 0x1 PUSH1 0x1 PUSH1 0xA0 SHL SUB DUP5 DUP2 AND PUSH1 0x0 SWAP1 DUP2 MSTORE PUSH1 0x4 PUSH1 0x20 MSTORE PUSH1 0x40 SWAP1 KECCAK256 SLOAD AND CALLER EQ JUMPDEST PUSH2 0x10C5 JUMPI PUSH1 0x40 MLOAD PUSH3 0x461BCD PUSH1 0xE5 SHL DUP2 MSTORE PUSH1 0x20 PUSH1 0x4 DUP3 ADD MSTORE PUSH1 0xD PUSH1 0x24 DUP3 ADD MSTORE PUSH13 0x1058D8D95CDCC819195B9A5959 PUSH1 0x9A SHL PUSH1 0x44 DUP3 ADD MSTORE PUSH1 0x64 ADD PUSH2 0x33F JUMP JUMPDEST DUP1 SLOAD DUP2 SWAP1 PUSH2 0x10D5 SWAP1 PUSH1 0x1 SWAP1 PUSH2 0x1B02 JUMP JUMPDEST DUP2 SLOAD DUP2 LT PUSH2 0x10E5 JUMPI PUSH2 0x10E5 PUSH2 0x19AF JUMP JUMPDEST SWAP1 PUSH1 0x0 MSTORE PUSH1 0x20 PUSH1 0x0 KECCAK256 SWAP1 PUSH1 0x6 MUL ADD PUSH1 0x40 MLOAD DUP1 PUSH2 0x100 ADD PUSH1 0x40 MSTORE SWAP1 DUP2 PUSH1 0x0 DUP3 ADD SLOAD DUP2 MSTORE PUSH1 0x20 ADD PUSH1 0x1 DUP3 ADD SLOAD DUP2 MSTORE PUSH1 0x20 ADD PUSH1 0x2 DUP3 ADD DUP1 SLOAD PUSH2 0x1123 SWAP1 PUSH2 0x1865 JUMP JUMPDEST DUP1 PUSH1 0x1F ADD PUSH1 0x20 DUP1 SWAP2 DIV MUL PUSH1 0x20 ADD PUSH1 0x40 MLOAD SWAP1 DUP2 ADD PUSH1 0x40 MSTORE DUP1 SWAP3 SWAP2 SWAP1 DUP2 DUP2 MSTORE PUSH1 0x20 ADD DUP3 DUP1 SLOAD PUSH2 0x114F SWAP1 PUSH2 0x1865 JUMP JUMPDEST DUP1 ISZERO PUSH2 0x119C JUMPI DUP1 PUSH1 0x1F LT PUSH2 0x1171 JUMPI PUSH2 0x100 DUP1 DUP4 SLOAD DIV MUL DUP4 MSTORE SWAP2 PUSH1 0x20 ADD SWAP2 PUSH2 0x119C JUMP JUMPDEST DUP3 ADD SWAP2 SWAP1 PUSH1 0x0 MSTORE PUSH1 0x20 PUSH1 0x0 KECCAK256 SWAP1 JUMPDEST DUP2 SLOAD DUP2 MSTORE SWAP1 PUSH1 0x1 ADD SWAP1 PUSH1 0x20 ADD DUP1 DUP4 GT PUSH2 0x117F JUMPI DUP3 SWAP1 SUB PUSH1 0x1F AND DUP3 ADD SWAP2 JUMPDEST POP POP POP SWAP2 DUP4 MSTORE POP POP PUSH1 0x3 DUP3 ADD SLOAD PUSH1 0xFF DUP2 AND PUSH1 0x20 DUP4 ADD MSTORE PUSH2 0x100 DUP2 DIV PUSH8 0xFFFFFFFFFFFFFFFF AND PUSH1 0x40 DUP4 ADD MSTORE PUSH1 0x1 PUSH1 0x48 SHL SWAP1 DIV PUSH4 0xFFFFFFFF AND PUSH1 0x60 DUP3 ADD MSTORE PUSH1 0x4 DUP3 ADD SLOAD PUSH1 0x80 DUP3 ADD MSTORE PUSH1 0x5 DUP3 ADD DUP1 SLOAD PUSH1 0xA0 SWAP1 SWAP3 ADD SWAP2 PUSH2 0x11F7 SWAP1 PUSH2 0x1865 JUMP JUMPDEST DUP1 PUSH1 0x1F ADD PUSH1 0x20 DUP1 SWAP2 DIV MUL PUSH1 0x20 ADD PUSH1 0x40 MLOAD SWAP1 DUP2 ADD PUSH1 0x40 MSTORE DUP1 SWAP3 SWAP2 SWAP1 DUP2 DUP2 MSTORE PUSH1 0x20 ADD DUP3 DUP1 SLOAD PUSH2 0x1223 SWAP1 PUSH2 0x1865 JUMP JUMPDEST DUP1 ISZERO PUSH2 0x1270 JUMPI DUP1 PUSH1 0x1F LT PUSH2 0x1245 JUMPI PUSH2 0x100 DUP1 DUP4 SLOAD DIV MUL DUP4 MSTORE SWAP2 PUSH1 0x20 ADD SWAP2 PUSH2 0x1270 JUMP JUMPDEST DUP3 ADD SWAP2 SWAP1 PUSH1 0x0 MSTORE PUSH1 0x20 PUSH1 0x0 KECCAK256 SWAP1 JUMPDEST DUP2 SLOAD DUP2 MSTORE SWAP1 PUSH1 0x1 ADD SWAP1 PUSH1 0x20 ADD DUP1 DUP4 GT PUSH2 0x1253 JUMPI DUP3 SWAP1 SUB PUSH1 0x1F AND DUP3 ADD SWAP2 JUMPDEST POP POP POP POP POP DUP2 MSTORE POP POP SWAP2 POP POP SWAP3 SWAP2 POP POP JUMP JUMPDEST PUSH1 0x1 PUSH1 0x1 PUSH1 0xA0 SHL SUB DUP5 AND PUSH1 0x0 SWAP1 DUP2 MSTORE PUSH1 0x20 DUP2 DUP2 MSTORE PUSH1 0x40 DUP1 DUP4 KECCAK256 PUSH1 0xFF DUP8 AND DUP5 MSTORE SWAP1 SWAP2 MSTORE DUP2 KECCAK256 SLOAD PUSH4 0xFFFFFFFF DUP5 AND LT PUSH2 0x12BB JUMPI POP PUSH1 0x0 PUSH2 0x445 JUMP JUMPDEST PUSH1 0x1 PUSH1 0x1 PUSH1 0xA0 SHL SUB DUP6 AND PUSH1 0x0 SWAP1 DUP2 MSTORE PUSH1 0x20 DUP2 DUP2 MSTORE PUSH1 0x40 DUP1 DUP4 KECCAK256 PUSH1 0xFF DUP9 AND DUP5 MSTORE SWAP1 SWAP2 MSTORE SWAP1 KECCAK256 DUP1 SLOAD DUP4 SWAP2 SWAP1 PUSH4 0xFFFFFFFF DUP7 AND SWAP1 DUP2 LT PUSH2 0x12FA JUMPI PUSH2 0x12FA PUSH2 0x19AF JUMP JUMPDEST SWAP1 PUSH1 0x0 MSTORE PUSH1 0x20 PUSH1 0x0 KECCAK256 SWAP1 PUSH1 0x6 MUL ADD PUSH1 0x0 ADD SLOAD EQ SWAP1 POP SWAP5 SWAP4 POP POP POP POP JUMP JUMPDEST CALLER PUSH1 0x0 SWAP1 DUP2 MSTORE PUSH1 0x1 PUSH1 0x20 MSTORE PUSH1 0x40 SWAP1 KECCAK256 SLOAD PUSH1 0xFF AND ISZERO PUSH2 0x136C JUMPI PUSH1 0x40 MLOAD PUSH3 0x461BCD PUSH1 0xE5 SHL DUP2 MSTORE PUSH1 0x20 PUSH1 0x4 DUP3 ADD MSTORE PUSH1 0x12 PUSH1 0x24 DUP3 ADD MSTORE PUSH18 0x105B1C9958591E481C9959DA5CDD195C9959 PUSH1 0x72 SHL PUSH1 0x44 DUP3 ADD MSTORE PUSH1 0x64 ADD PUSH2 0x33F JUMP JUMPDEST CALLER PUSH1 0x0 DUP2 DUP2 MSTORE PUSH1 0x1 PUSH1 0x20 DUP2 DUP2 MSTORE PUSH1 0x40 SWAP3 DUP4 SWAP1 KECCAK256 DUP1 SLOAD PUSH1 0xFF NOT AND SWAP1 SWAP3 OR SWAP1 SWAP2 SSTORE SWAP1 MLOAD PUSH8 0xFFFFFFFFFFFFFFFF TIMESTAMP AND DUP2 MSTORE PUSH32 0xE60A3E37A71D811F21074034FD64F05048318F6349B1503EFF836E66E4427553 SWAP2 ADD PUSH1 0x40 MLOAD DUP1 SWAP2 SUB SWAP1 LOG2 JUMP JUMPDEST POP DUP1 SLOAD PUSH2 0x13D3 SWAP1 PUSH2 0x1865 JUMP JUMPDEST PUSH1 0x0 DUP3 SSTORE DUP1 PUSH1 0x1F LT PUSH2 0x13E3 JUMPI POP POP JUMP JUMPDEST PUSH1 0x1F ADD PUSH1 0x20 SWAP1 DIV SWAP1 PUSH1 0x0 MSTORE PUSH1 0x20 PUSH1 0x0 KECCAK256 SWAP1 DUP2 ADD SWAP1 PUSH2 0x1401 SWAP2 SWAP1 PUSH2 0x1404 JUMP JUMPDEST POP JUMP JUMPDEST JUMPDEST DUP1 DUP3 GT ISZERO PUSH2 0x1419 JUMPI PUSH1 0x0 DUP2 SSTORE PUSH1 0x1 ADD PUSH2 0x1405 JUMP JUMPDEST POP SWAP1 JUMP JUMPDEST DUP1 CALLDATALOAD PUSH1 0x1 PUSH1 0x1 PUSH1 0xA0 SHL SUB DUP2 AND DUP2 EQ PUSH2 0x1434 JUMPI PUSH1 0x0 DUP1 REVERT JUMPDEST SWAP2 SWAP1 POP JUMP JUMPDEST DUP1 CALLDATALOAD PUSH1 0xFF DUP2 AND DUP2 EQ PUSH2 0x1434 JUMPI PUSH1 0x0 DUP1 REVERT JUMPDEST PUSH1 0x0 DUP1 DUP4 PUSH1 0x1F DUP5 ADD SLT PUSH2 0x145C JUMPI PUSH1 0x0 DUP1 REVERT JUMPDEST POP DUP2 CALLDATALOAD PUSH8 0xFFFFFFFFFFFFFFFF DUP2 GT ISZERO PUSH2 0x1474 JUMPI PUSH1 0x0 DUP1 REVERT JUMPDEST PUSH1 0x20 DUP4 ADD SWAP2 POP DUP4 PUSH1 0x20 DUP3 DUP6 ADD ADD GT ISZERO PUSH2 0x148C JUMPI PUSH1 0x0 DUP1 REVERT JUMPDEST SWAP3 POP SWAP3 SWAP1 POP JUMP JUMPDEST PUSH1 0x0 DUP1 PUSH1 0x0 DUP1 PUSH1 0x60 DUP6 DUP8 SUB SLT ISZERO PUSH2 0x14A9 JUMPI PUSH1 0x0 DUP1 REVERT JUMPDEST PUSH2 0x14B2 DUP6 PUSH2 0x141D JUMP JUMPDEST SWAP4 POP PUSH2 0x14C0 PUSH1 0x20 DUP7 ADD PUSH2 0x1439 JUMP JUMPDEST SWAP3 POP PUSH1 0x40 DUP6 ADD CALLDATALOAD PUSH8 0xFFFFFFFFFFFFFFFF DUP2 GT ISZERO PUSH2 0x14DC JUMPI PUSH1 0x0 DUP1 REVERT JUMPDEST PUSH2 0x14E8 DUP8 DUP3 DUP9 ADD PUSH2 0x144A JUMP JUMPDEST SWAP6 SWAP9 SWAP5 SWAP8 POP SWAP6 POP POP POP POP JUMP JUMPDEST PUSH1 0x0 DUP1 PUSH1 0x0 PUSH1 0x60 DUP5 DUP7 SUB SLT ISZERO PUSH2 0x1509 JUMPI PUSH1 0x0 DUP1 REVERT JUMPDEST PUSH2 0x1512 DUP5 PUSH2 0x141D JUMP JUMPDEST SWAP3 POP PUSH2 0x1520 PUSH1 0x20 DUP6 ADD PUSH2 0x141D JUMP JUMPDEST SWAP2 POP PUSH2 0x152E PUSH1 0x40 DUP6 ADD PUSH2 0x1439 JUMP JUMPDEST SWAP1 POP SWAP3 POP SWAP3 POP SWAP3 JUMP JUMPDEST DUP1 CALLDATALOAD PUSH4 0xFFFFFFFF DUP2 AND DUP2 EQ PUSH2 0x1434 JUMPI PUSH1 0x0 DUP1 REVERT JUMPDEST PUSH1 0x0 DUP1 PUSH1 0x0 PUSH1 0x60 DUP5 DUP7 SUB SLT ISZERO PUSH2 0x1560 JUMPI PUSH1 0x0 DUP1 REVERT JUMPDEST PUSH2 0x1569 DUP5 PUSH2 0x141D JUMP JUMPDEST SWAP3 POP PUSH2 0x1577 PUSH1 0x20 DUP6 ADD PUSH2 0x1439 JUMP JUMPDEST SWAP2 POP PUSH2 0x152E PUSH1 0x40 DUP6 ADD PUSH2 0x1537 JUMP JUMPDEST PUSH1 0x0 DUP2 MLOAD DUP1 DUP5 MSTORE PUSH1 0x0 JUMPDEST DUP2 DUP2 LT ISZERO PUSH2 0x15AB JUMPI PUSH1 0x20 DUP2 DUP6 ADD DUP2 ADD MLOAD DUP7 DUP4 ADD DUP3 ADD MSTORE ADD PUSH2 0x158F JUMP JUMPDEST POP PUSH1 0x0 PUSH1 0x20 DUP3 DUP7 ADD ADD MSTORE PUSH1 0x20 PUSH1 0x1F NOT PUSH1 0x1F DUP4 ADD AND DUP6 ADD ADD SWAP2 POP POP SWAP3 SWAP2 POP POP JUMP JUMPDEST PUSH1 0x20 DUP2 MSTORE DUP2 MLOAD PUSH1 0x20 DUP3 ADD MSTORE PUSH1 0x20 DUP3 ADD MLOAD PUSH1 0x40 DUP3 ADD MSTORE PUSH1 0x0 PUSH1 0x40 DUP4 ADD MLOAD PUSH2 0x100 DUP1 PUSH1 0x60 DUP6 ADD MSTORE PUSH2 0x15FE PUSH2 0x120 DUP6 ADD DUP4 PUSH2 0x1585 JUMP JUMPDEST SWAP2 POP PUSH1 0xFF PUSH1 0x60 DUP7 ADD MLOAD AND PUSH1 0x80 DUP6 ADD MSTORE PUSH1 0x80 DUP6 ADD MLOAD PUSH2 0x1628 PUSH1 0xA0 DUP7 ADD DUP3 PUSH8 0xFFFFFFFFFFFFFFFF AND SWAP1 MSTORE JUMP JUMPDEST POP PUSH1 0xA0 DUP6 ADD MLOAD PUSH4 0xFFFFFFFF DUP2 AND PUSH1 0xC0 DUP7 ADD MSTORE POP PUSH1 0xC0 DUP6 ADD MLOAD PUSH1 0xE0 DUP6 ADD MSTORE PUSH1 0xE0 DUP6 ADD MLOAD PUSH1 0x1F NOT DUP6 DUP5 SUB ADD DUP3 DUP7 ADD MSTORE PUSH2 0x165F DUP4 DUP3 PUSH2 0x1585 JUMP JUMPDEST SWAP7 SWAP6 POP POP POP POP POP POP JUMP JUMPDEST PUSH1 0x0 DUP1 PUSH1 0x40 DUP4 DUP6 SUB SLT ISZERO PUSH2 0x167C JUMPI PUSH1 0x0 DUP1 REVERT JUMPDEST PUSH2 0x1685 DUP4 PUSH2 0x141D JUMP JUMPDEST SWAP2 POP PUSH2 0x1693 PUSH1 0x20 DUP5 ADD PUSH2 0x1439 JUMP JUMPDEST SWAP1 POP SWAP3 POP SWAP3 SWAP1 POP JUMP JUMPDEST PUSH1 0x20 DUP2 MSTORE PUSH1 0x0 PUSH2 0x16AF PUSH1 0x20 DUP4 ADD DUP5 PUSH2 0x1585 JUMP JUMPDEST SWAP4 SWAP3 POP POP POP JUMP JUMPDEST PUSH1 0x0 DUP1 PUSH1 0x40 DUP4 DUP6 SUB SLT ISZERO PUSH2 0x16C9 JUMPI PUSH1 0x0 DUP1 REVERT JUMPDEST PUSH2 0x16D2 DUP4 PUSH2 0x141D JUMP JUMPDEST SWAP5 PUSH1 0x20 SWAP4 SWAP1 SWAP4 ADD CALLDATALOAD SWAP4 POP POP POP JUMP JUMPDEST PUSH1 0x0 PUSH1 0x20 DUP3 DUP5 SUB SLT ISZERO PUSH2 0x16F2 JUMPI PUSH1 0x0 DUP1 REVERT JUMPDEST PUSH2 0x16AF DUP3 PUSH2 0x141D JUMP JUMPDEST PUSH1 0x20 DUP1 DUP3 MSTORE DUP3 MLOAD DUP3 DUP3 ADD DUP2 SWAP1 MSTORE PUSH1 0x0 SWAP2 SWAP1 DUP5 DUP3 ADD SWAP1 PUSH1 0x40 DUP6 ADD SWAP1 DUP5 JUMPDEST DUP2 DUP2 LT ISZERO PUSH2 0x173C JUMPI DUP4 MLOAD PUSH1 0x1 PUSH1 0x1 PUSH1 0xA0 SHL SUB AND DUP4 MSTORE SWAP3 DUP5 ADD SWAP3 SWAP2 DUP5 ADD SWAP2 PUSH1 0x1 ADD PUSH2 0x1717 JUMP JUMPDEST POP SWAP1 SWAP7 SWAP6 POP POP POP POP POP POP JUMP JUMPDEST PUSH1 0x0 DUP1 PUSH1 0x0 DUP1 PUSH1 0x0 DUP1 PUSH1 0x0 PUSH1 0xA0 DUP9 DUP11 SUB SLT ISZERO PUSH2 0x1763 JUMPI PUSH1 0x0 DUP1 REVERT JUMPDEST PUSH2 0x176C DUP9 PUSH2 0x1439 JUMP JUMPDEST SWAP7 POP PUSH1 0x20 DUP9 ADD CALLDATALOAD SWAP6 POP PUSH1 0x40 DUP9 ADD CALLDATALOAD SWAP5 POP PUSH1 0x60 DUP9 ADD CALLDATALOAD PUSH8 0xFFFFFFFFFFFFFFFF DUP1 DUP3 GT ISZERO PUSH2 0x1797 JUMPI PUSH1 0x0 DUP1 REVERT JUMPDEST PUSH2 0x17A3 DUP12 DUP4 DUP13 ADD PUSH2 0x144A JUMP JUMPDEST SWAP1 SWAP7 POP SWAP5 POP PUSH1 0x80 DUP11 ADD CALLDATALOAD SWAP2 POP DUP1 DUP3 GT ISZERO PUSH2 0x17BC JUMPI PUSH1 0x0 DUP1 REVERT JUMPDEST POP PUSH2 0x17C9 DUP11 DUP3 DUP12 ADD PUSH2 0x144A JUMP JUMPDEST SWAP9 SWAP12 SWAP8 SWAP11 POP SWAP6 SWAP9 POP SWAP4 SWAP7 SWAP3 SWAP6 SWAP3 SWAP4 POP POP POP JUMP JUMPDEST PUSH1 0x0 DUP1 PUSH1 0x0 DUP1 PUSH1 0x80 DUP6 DUP8 SUB SLT ISZERO PUSH2 0x17F2 JUMPI PUSH1 0x0 DUP1 REVERT JUMPDEST PUSH2 0x17FB DUP6 PUSH2 0x141D JUMP JUMPDEST SWAP4 POP PUSH2 0x1809 PUSH1 0x20 DUP7 ADD PUSH2 0x1439 JUMP JUMPDEST SWAP3 POP PUSH2 0x1817 PUSH1 0x40 DUP7 ADD PUSH2 0x1537 JUMP JUMPDEST SWAP4 SWAP7 SWAP3 SWAP6 POP SWAP3 SWAP4 PUSH1 0x60 ADD CALLDATALOAD SWAP3 POP POP JUMP JUMPDEST PUSH1 0x20 DUP1 DUP3 MSTORE PUSH1 0xE SWAP1 DUP3 ADD MSTORE PUSH14 0x139BDD081C9959DA5CDD195C9959 PUSH1 0x92 SHL PUSH1 0x40 DUP3 ADD MSTORE PUSH1 0x60 ADD SWAP1 JUMP JUMPDEST PUSH4 0x4E487B71 PUSH1 0xE0 SHL PUSH1 0x0 MSTORE PUSH1 0x41 PUSH1 0x4 MSTORE PUSH1 0x24 PUSH1 0x0 REVERT JUMPDEST PUSH1 0x1 DUP2 DUP2 SHR SWAP1 DUP3 AND DUP1 PUSH2 0x1879 JUMPI PUSH1 0x7F DUP3 AND SWAP2 POP JUMPDEST PUSH1 0x20 DUP3 LT DUP2 SUB PUSH2 0x1899 JUMPI PUSH4 0x4E487B71 PUSH1 0xE0 SHL PUSH1 0x0 MSTORE PUSH1 0x22 PUSH1 0x4 MSTORE PUSH1 0x24 PUSH1 0x0 REVERT JUMPDEST POP SWAP2 SWAP1 POP JUMP JUMPDEST PUSH1 0x1F DUP3 GT ISZERO PUSH2 0x18E9 JUMPI PUSH1 0x0 DUP2 DUP2 MSTORE PUSH1 0x20 DUP2 KECCAK256 PUSH1 0x1F DUP6 ADD PUSH1 0x5 SHR DUP2 ADD PUSH1 0x20 DUP7 LT ISZERO PUSH2 0x18C6 JUMPI POP DUP1 JUMPDEST PUSH1 0x1F DUP6 ADD PUSH1 0x5 SHR DUP3 ADD SWAP2 POP JUMPDEST DUP2 DUP2 LT ISZERO PUSH2 0x18E5 JUMPI DUP3 DUP2 SSTORE PUSH1 0x1 ADD PUSH2 0x18D2 JUMP JUMPDEST POP POP POP JUMPDEST POP POP POP JUMP JUMPDEST PUSH8 0xFFFFFFFFFFFFFFFF DUP4 GT ISZERO PUSH2 0x1906 JUMPI PUSH2 0x1906 PUSH2 0x184F JUMP JUMPDEST PUSH2 0x191A DUP4 PUSH2 0x1914 DUP4 SLOAD PUSH2 0x1865 JUMP JUMPDEST DUP4 PUSH2 0x189F JUMP JUMPDEST PUSH1 0x0 PUSH1 0x1F DUP5 GT PUSH1 0x1 DUP2 EQ PUSH2 0x194E JUMPI PUSH1 0x0 DUP6 ISZERO PUSH2 0x1936 JUMPI POP DUP4 DUP3 ADD CALLDATALOAD JUMPDEST PUSH1 0x0 NOT PUSH1 0x3 DUP8 SWAP1 SHL SHR NOT AND PUSH1 0x1 DUP7 SWAP1 SHL OR DUP4 SSTORE PUSH2 0x19A8 JUMP JUMPDEST PUSH1 0x0 DUP4 DUP2 MSTORE PUSH1 0x20 SWAP1 KECCAK256 PUSH1 0x1F NOT DUP7 AND SWAP1 DUP4 JUMPDEST DUP3 DUP2 LT ISZERO PUSH2 0x197F JUMPI DUP7 DUP6 ADD CALLDATALOAD DUP3 SSTORE PUSH1 0x20 SWAP5 DUP6 ADD SWAP5 PUSH1 0x1 SWAP1 SWAP3 ADD SWAP2 ADD PUSH2 0x195F JUMP JUMPDEST POP DUP7 DUP3 LT ISZERO PUSH2 0x199C JUMPI PUSH1 0x0 NOT PUSH1 0xF8 DUP9 PUSH1 0x3 SHL AND SHR NOT DUP5 DUP8 ADD CALLDATALOAD AND DUP2 SSTORE JUMPDEST POP POP PUSH1 0x1 DUP6 PUSH1 0x1 SHL ADD DUP4 SSTORE JUMPDEST POP POP POP POP POP JUMP JUMPDEST PUSH4 0x4E487B71 PUSH1 0xE0 SHL PUSH1 0x0 MSTORE PUSH1 0x32 PUSH1 0x4 MSTORE PUSH1 0x24 PUSH1 0x0 REVERT JUMPDEST PUSH4 0x4E487B71 PUSH1 0xE0 SHL PUSH1 0x0 MSTORE PUSH1 0x11 PUSH1 0x4 MSTORE PUSH1 0x24 PUSH1 0x0 REVERT JUMPDEST PUSH4 0xFFFFFFFF DUP3 DUP2 AND DUP3 DUP3 AND SUB SWAP1 DUP1 DUP3 GT ISZERO PUSH2 0x19F8 JUMPI PUSH2 0x19F8 PUSH2 0x19C5 JUMP JUMPDEST POP SWAP3 SWAP2 POP POP JUMP JUMPDEST DUP2 MLOAD PUSH8 0xFFFFFFFFFFFFFFFF DUP2 GT ISZERO PUSH2 0x1A19 JUMPI PUSH2 0x1A19 PUSH2 0x184F JUMP JUMPDEST PUSH2 0x1A2D DUP2 PUSH2 0x1A27 DUP5 SLOAD PUSH2 0x1865 JUMP JUMPDEST DUP5 PUSH2 0x189F JUMP JUMPDEST PUSH1 0x20 DUP1 PUSH1 0x1F DUP4 GT PUSH1 0x1 DUP2 EQ PUSH2 0x1A62 JUMPI PUSH1 0x0 DUP5 ISZERO PUSH2 0x1A4A JUMPI POP DUP6 DUP4 ADD MLOAD JUMPDEST PUSH1 0x0 NOT PUSH1 0x3 DUP7 SWAP1 SHL SHR NOT AND PUSH1 0x1 DUP6 SWAP1 SHL OR DUP6 SSTORE PUSH2 0x18E5 JUMP JUMPDEST PUSH1 0x0 DUP6 DUP2 MSTORE PUSH1 0x20 DUP2 KECCAK256 PUSH1 0x1F NOT DUP7 AND SWAP2 JUMPDEST DUP3 DUP2 LT ISZERO PUSH2 0x1A91 JUMPI DUP9 DUP7 ADD MLOAD DUP3 SSTORE SWAP5 DUP5 ADD SWAP5 PUSH1 0x1 SWAP1 SWAP2 ADD SWAP1 DUP5 ADD PUSH2 0x1A72 JUMP JUMPDEST POP DUP6 DUP3 LT ISZERO PUSH2 0x1AAF JUMPI DUP8 DUP6 ADD MLOAD PUSH1 0x0 NOT PUSH1 0x3 DUP9 SWAP1 SHL PUSH1 0xF8 AND SHR NOT AND DUP2 SSTORE JUMPDEST POP POP POP POP POP PUSH1 0x1 SWAP1 DUP2 SHL ADD SWAP1 SSTORE POP JUMP JUMPDEST PUSH4 0xFFFFFFFF DUP6 AND DUP2 MSTORE DUP4 PUSH1 0x20 DUP3 ADD MSTORE PUSH1 0x60 PUSH1 0x40 DUP3 ADD MSTORE DUP2 PUSH1 0x60 DUP3 ADD MSTORE DUP2 DUP4 PUSH1 0x80 DUP4 ADD CALLDATACOPY PUSH1 0x0 DUP2 DUP4 ADD PUSH1 0x80 SWAP1 DUP2 ADD SWAP2 SWAP1 SWAP2 MSTORE PUSH1 0x1F SWAP1 SWAP3 ADD PUSH1 0x1F NOT AND ADD ADD SWAP4 SWAP3 POP POP POP JUMP JUMPDEST DUP2 DUP2 SUB DUP2 DUP2 GT ISZERO PUSH2 0x99C JUMPI PUSH2 0x99C PUSH2 0x19C5 JUMP INVALID LOG2 PUSH5 0x6970667358 0x22 SLT KECCAK256 SWAP6 0xCB CALLVALUE PUSH0 LOG0 JUMPDEST JUMPI STATICCALL 0xE9 SWAP13 0xAC 0xB5 0xF7 0x5C PUSH12 0x7AD7324147FAED0B3C453A69 SWAP14 0xF9 0xD8 0xB4 0xC PUSH5 0x736F6C6343 STOP ADDMOD EQ STOP CALLER "},"methodIdentifiers":{"children(address,uint256)":"4e94f499","documentAt(address,uint8,uint32)":"2bf28a29","documentCount(address,uint8)":"67631619","getAccessKey(address,address,uint8)":"2ff296d5","getChildren(address)":"6999fa45","getParent(address)":"a9405923","grantAccess(address,uint8)":"87ed1bd0","hasAccess(address,address,uint8)":"17888263","latestDocument(address,uint8)":"ab084fee","parent(address)":"f1f9d8c9","registerChild(address)":"8b687ef0","registerSoul()":"ca9ace4f","registered(address)":"b2dd5c07","removeAccessKey(address,uint8)":"2cad2aeb","revokeAccess(address,uint8)":"6f925535","storeAccessKey(address,uint8,bytes)":"0f9ae37c","verifyDocument(address,uint8,uint32,bytes32)":"afe8e794","writeDocument(uint8,bytes32,bytes32,string,bytes)":"7f761cfe"}}}}}